:020000040800F2
:1000000000000220251E0008C1080008C3080008DF
:10001000C5080008C7080008C9080008000000005B
:10002000000000000000000000000000CB080008F5
:10003000CD08000800000000CF080008D108000823
:10004000751E0008751E0008751E0008751E000844
:10005000751E0008751E0008751E0008751E000834
:10006000751E0008751E0008751E0008751E000824
:10007000751E0008751E0008751E0008751E000814
:10008000751E0008751E0008751E0008751E000804
:10009000751E0008751E0008751E0008751E0008F4
:1000A000751E0008751E0008751E0008751E0008E4
:1000B000751E0008751E0008751E0008751E0008D4
:1000C000751E0008751E0008751E0008751E0008C4
:1000D000751E0008751E0008751E0008751E0008B4
:1000E000D9080008751E0008751E0008751E000856
:1000F000751E0008751E0008751E0008751E000894
:10010000751E0008751E0008751E0008751E000883
:10011000751E0008751E0008E5080008F5080008AF
:10012000751E0008751E0008751E0008751E000863
:10013000751E00080000000000000000751E000889
:10014000751E0008751E0008751E0008751E000843
:10015000751E0008751E0008751E0008751E000833
:10016000751E0008751E0008751E0008751E000823
:10017000751E0008751E0008751E000800000000AE
:1001800000000000751E00080000000000000000D4
:10019000751E00080000000000000000751E000829
:1001A000000000000000000000000000751E0008B4
:1001B000751E0008751E0008751E0008751E0008D3
:0401C000751E0008A0
:1001C40053B94AB9002908BF00281CBF4FF0FF31BA
:1001D4004FF0FF3000F00CB8ADF1080C6DE904CE1F
:1001E40001F074FEDDF804E0DDE9022304B0704799
:1001F400704700BF10B5054C237833B9044B13B1D5
:100204000448AFF300800123237010BD1C000020BC
:10021400000000008C21000808B5034B1BB1034902
:100224000348AFF3008008BD000000002000002058
:100234008C21000808B5164B1B7833B9154B1B7875
:1002440093B9154B1B78CBB908BD0023104A137022
:10025400124A01211170124A1360124801F0C8FABF
:10026400114801F0C5FAE9E70A4B00221A70142379
:100274000C220E490E4801F066FDE2E7064B00220F
:100284001A7014230D220B49094801F05CFDDBE7C9
:100294003E0000203D0000203C0000203F000020E4
:1002A40038000020CC00002084000020A421000895
:1002B40040000020B421000808B5114B1B7843B955
:1002C40000F074FB0F4B1B68C01AB0F5FA7F0CD812
:1002D40008BD00230A4A13700B4A13700B4801F03F
:1002E40043FA0B4801F040FAEAE700F05FFB054BE4
:1002F400186064233B220749074801F024FDE7E71F
:100304003E000020380000203F000020CC000020E8
:1003140084000020C42100084000002070B58AB089
:100324000024059406940794089409940194264B98
:100334001A6B42F004021A631A6B02F0040201926F
:10034400019A02941A6B42F080021A631A6B02F04B
:1003540080020292029A03941A6B42F001021A6319
:100364001A6B02F001020392039A04941A6B42F08E
:1003740002021A631B6B03F002030493049B134EE3
:1003840022466021304600F01BFE4FF400530593D3
:100394004FF4041306930125079505A90C4800F0B2
:1003A4001FFD6023059306950794089405A930461C
:1003B40000F016FD2A462146282000F0DFFC282004
:1003C40000F0ECFC0AB070BD0038024000000240AE
:1003D40000080240014B01221A7070473E000020C1
:1003E40008B50A4B984209D0094B98420AD00A230F
:1003F4001B220849084801F0A6FC08BD074B01224E
:100404001A70FAE7064B01221A70F6E7CC000020B6
:100414008400002000220008400000203C0000204E
:100424003D00002008B5084B1B78012B05D8074A6E
:1004340002EBC3035B68984708BD0A231A460449C4
:10044400044801F080FCF7E73F0000200000002092
:100454001C2200084000002072B6FEE700B585B0FB
:10046400002300930193029303931348134A0260F9
:10047400436083600361037680F82030C362104ACE
:100484008262C3600122C26180F83030426100F0B0
:100494002DFB60B900230093012201920293694667
:1004A400054800F04FFB20B905B05DF804FBFFF7E9
:1004B400D3FFFFF7D1FF00BF5C0100200020014003
:1004C4000100000F00B585B000230093019302934F
:1004D40003931348134A0260436083600361037605
:1004E40080F82030C362104A8262C3600122C26174
:1004F40080F83030426100F0F9FA60B901230093CA
:100504000193002302936946054800F01BFB20B9C0
:1005140005B05DF804FBFFF79FFFFFF79DFF00BFE9
:1005240014010020002101400100000F00B583B038
:100534000023009301930E480E4A026043F67F6243
:1005440042608360C822C260836101F08FFA50B9AF
:100554000023009301936946054801F0B3FA20B9DA
:1005640003B05DF804FBFFF777FFFFF775FF00BFEB
:10057400CC0000200010004000B583B0002300939D
:1005840001930E480E4A026043F67F624260836024
:100594004FF4AF72C260836101F068FA50B900236E
:1005A400009301936946054801F08CFA20B903B021
:1005B4005DF804FBFFF750FFFFF74EFF84000020B7
:1005C4000014004008B50A480A4B03604FF4165360
:1005D400436000238360C36003610C224261836132
:1005E400C36101F081FB00B908BDFFF735FF00BF0F
:1005F400400000200044004000B595B034220021A2
:1006040007A801F036FC0023029303930493059397
:10061400069300931A4A116C41F080511164126CD4
:1006240002F080520092009A019316490A6822F45B
:10063400404242F480420A600A6802F44042019255
:10064400019A0222079201220A9210220B920D9320
:1006540007A800F067FE78B90F23029300210391E5
:1006640004914FF480530593069102A800F0BCFC5A
:1006740020B915B05DF804FBFFF7EEFEFFF7ECFEC2
:10068400003802400070004008B500F069F9FFF737
:10069400B3FFFFF743FEFFF7E1FEFFF713FFFFF79A
:1006A40045FFFFF769FFFFF78DFF094801F05CF88C
:1006B400084801F059F80023074A1370074A1370D9
:1006C400074A1370074A1370FFF7ACFEFCE700BF3C
:1006D400CC000020840000203F0000203E000020C9
:1006E4003D0000203C00002000B583B000210091B3
:1006F4000C4B5A6C42F480425A645A6C02F48042A5
:100704000092009A01911A6C42F080521A641B6C98
:1007140003F080530193019B072000F01DFB03B0FD
:100724005DF804FB0038024000B58BB0002305934C
:1007340006930793089309930368234A934205D0C9
:10074400224A934221D00BB05DF804FB00210191B1
:100754001F4B5A6C42F480725A645A6C02F48072D1
:100764000192019A02911A6B42F001021A631B6B07
:1007740003F001030293029B0123059303230693D1
:1007840005A9144800F02CFBDDE700210391104B70
:100794005A6C42F400725A645A6C02F40072039266
:1007A400039A04911A6B42F001021A631B6B03F063
:1007B40001030493049B022305930323069305A9D1
:1007C400044800F00DFBBEE7002001400021014079
:1007D400003802400000024000B583B00368184AA4
:1007E400934205D0174A934216D003B05DF804FB38
:1007F40000210091144B1A6C42F010021A641B6C15
:1008040003F010030093009B0A46362000F0B6FA6A
:10081400362000F0C3FAE8E7002101910A4B1A6C74
:1008240042F020021A641B6C03F020030193019B25
:100834000A46372000F0A2FA372000F0AFFAD4E7D6
:1008440000100040001400400038024000B589B098
:100854000023039304930593069307930268154BAF
:100864009A4202D009B05DF804FB0021019103F51E
:10087400FA331A6C42F400321A641A6C02F400322D
:100884000192019A02911A6B42F001021A631B6BE6
:1008940003F001030293029B0C23039302230493AA
:1008A400032306930723079303A9034800F098FA48
:1008B400D8E700BF0044004000000240FEE7FEE726
:1008C400FEE7FEE7FEE770477047704708B500F0A3
:1008D40061F808BD08B54FF4005000F077FB08BD7F
:1008E40008B5024800F0A1FF08BD00BFCC000020FD
:1008F40008B5024800F099FF08BD00BF840000203D
:10090400034AD2F8883043F47003C2F88830704741
:1009140000ED00E010B504460E4B1A784FF47A73DC
:10092400B3FBF2F30C4A1068B0FBF3F000F044FAA6
:1009340068B90F2C01D901200AE0002221464FF0AA
:10094400FF3000F01BFA054B1C60002000E0012082
:1009540010BD00BF1400002010000020180000206B
:1009640008B50B4B1A6842F400721A601A6842F414
:1009740080621A601A6842F480721A60032000F0E0
:10098400EBF90020FFF7C6FFFFF7AEFE002008BD1D
:10099400003C0240034A1168034B1B780B4413606C
:1009A400704700BFA401002014000020014B186808
:1009B400704700BFA40100204A4B5A6822F4403219
:1009C4005A605A6841680A435A600268536823F4BB
:1009D4008073536002685368016943EA01235360DA
:1009E4000268536823F04073536002685368816857
:1009F4000B4353600268936823F4006393600268B6
:100A04009368C1680B439360826A374B9A4257D00C
:100A14000268936823F07063936002689368816A44
:100A24000B4393600268936823F040539360026819
:100A34009368C16A0B4393600268936823F00203CE
:100A4400936002689368017E43EA4103936090F8DF
:100A54002030002B3FD00268536843F40063536096
:100A64000268536823F46043536001684B68426A28
:100A7400013A43EA42334B600268D36A23F47003B9
:100A8400D3620168CB6AC269013A43EA0253CB627A
:100A94000268936823F4007393600268936890F883
:100AA400301043EA412393600268936823F480631F
:100AB400936002689368416943EA812393607047B5
:100AC4000268936823F0706393600268936823F06C
:100AD40040539360B0E70268536823F400635360A3
:100AE400CAE700BF002301400100000F38B310B56E
:100AF4000446036C43B1236C13F0100F0BD0012098
:100B0400002384F83C3010BDFFF70EFE002363641D
:100B140084F83C30EFE7236C23F4885323F002037A
:100B240043F0020323642046FFF746FF002060647D
:100B3400236C23F0030343F001032364E0E7012063
:100B44007047000030B482B00022019290F83C203B
:100B5400012A00F0C0800346012280F83C200A6884
:100B6400092A40D90468E06892B202EB42021E3AB4
:100B74004FF0070C0CFA02F220EA0202E2601C6851
:100B8400E0680A8802EB42021E3A8D6805FA02F216
:100B94000243E2604A68062A3CD81C68606B02EB98
:100BA4008202053A4FF01F0C0CFA02F220EA02020C
:100BB40062631C68606B4A6802EB8202053AB1F812
:100BC40000C00CFA02F2024362631868434A90427E
:100BD40050D01868414A904259D0002083F83C0014
:100BE40002B030BC70470468206992B202EB420242
:100BF4004FF0070C0CFA02F220EA020222611C6890
:100C040020690A8802EB42028D6805FA02F2024367
:100C14002261BFE70C2A16D81D68286B02EB8202FA
:100C2400233A1F2404FA02F220EA02022A631D680E
:100C3400286B4A6802EB8202233A0C8804FA02F217
:100C440002432A63C1E71D68E86A02EB8202413A63
:100C54001F2404FA02F220EA0202EA621D68E86A2A
:100C64004A6802EB8202413A0C8804FA02F2024317
:100C7400EA62AAE70A68122AABD1194A506820F43A
:100C840000005060506840F480005060A1E70A689A
:100C94001448824201D0112A9FD1114A506820F48D
:100CA40080005060506840F40000506009680D4AAC
:100CB400914292D10C4A12680C49A1FB0212920C87
:100CC40002EB820252000192019A002A85D0019A15
:100CD400013A0192F8E7022082E700BF00200140B8
:100CE40000230140120000101000002083DE1B438B
:100CF400002808DB0901C9B200F1604000F5614039
:100D040080F80013704700F00F000901C9B2014BCD
:100D14001954704714ED00E000B500F00700C0F16D
:100D2400070CBCF1040F28BF4FF0040C031D062B65
:100D34000FD9C31E4FF0FF3E0EFA0CF021EA00015A
:100D440099400EFA03FE22EA0E0241EA02005DF81F
:100D540004FB0023EEE70000074AD36823F4E063B2
:100D64001B041B0C000200F4E060034343F0BF6368
:100D740043F40033D360704700ED00E010B504463F
:100D8400054BD868C0F30220FFF7C6FF0146204692
:100D9400FFF7AEFF10BD00BF00ED00E0002807DB49
:100DA40000F01F02400901239340024A42F8203018
:100DB400704700BF00E100E00138B0F1807F0BD242
:100DC4004FF0E0235861054AF02182F823100020F7
:100DD400986107221A6170470120704700ED00E016
:100DE40000230F2B00F2E38070B582B065E08568C4
:100DF4004FEA430E032404FA0EF425EA0405CC68F2
:100E040004FA0EF42C438460446824EA02044A6819
:100E1400C2F300129A40224342605CE0DC080834CA
:100E240050F8242003F00705AD004FF00F0E0EFA22
:100E340005FE22EA0E0E0A69AA4042EA0E0240F8B2
:100E440024205CE0062200E0002202FA0EF22A438B
:100E54000234574D45F82420564A94686FEA0C0230
:100E640024EA0C054E6816F4801F01D04CEA0405F0
:100E7400504CA560E46802EA04054E6816F4001FAD
:100E840001D04CEA04054B4CE560646802EA0405B1
:100E94004E6816F4003F01D04CEA0405454C6560E9
:100EA400246822404D6815F4803F01D04CEA0402C6
:100EB400404C226001330F2B77D801229A400C68F2
:100EC40004EA020C32EA0404F4D14C6804F003048A
:100ED400013C012C8BD94A6802F00302032A09D091
:100EE400C4685D000322AA4024EA02048A68AA4076
:100EF4002243C2604A6802F00302022A8ED00468C8
:100F04004FEA430E032202FA0EF224EA02044A686C
:100F140002F0030202FA0EF2224302604A6812F45B
:100F2400403FC7D000220192234A546C44F48044C9
:100F34005464526C02F480420192019A9C08A51CEC
:100F44001B4A52F8255003F0030E4FEA8E0E0F226F
:100F540002FA0EF225EA0205184A90423FF474AFF1
:100F640002F58062904216D002F58062904214D05D
:100F740002F58062904212D002F58062904210D055
:100F840002F5806290420ED002F5806290423FF4F6
:100F940059AF072259E7012257E7022255E70322F6
:100FA40053E7042251E705224FE702B070BD7047B2
:100FB40000380140003C014000380240000002407B
:100FC4000AB18161704709048161704708B5054B16
:100FD4005B69034200D108BD024B5861FFF7FAF97F
:100FE400F9E700BF003C0140002800F09B8070B589
:100FF4000D4604464F4B1B6803F00F038B4208D287
:10100400CBB24C4A1370136803F00F038B4240F0C9
:101014008B80236813F0020F17D013F0040F04D051
:10102400454A936843F4E0539360236813F0080F30
:1010340004D0414A936843F4604393603E4A936802
:1010440023F0F003A1680B439360236813F0010FAE
:1010540032D06368012B21D09A1E012A25D9364A41
:10106400126812F0020F61D033498A6822F0030239
:1010740013438B60FFF79AFC06462F4B9B6803F0E3
:101084000C036268B3EB820F16D0FFF78FFC801B52
:1010940041F288339842F0D9032042E0264A12688C
:1010A40012F4003FE0D101203BE0234A126812F021
:1010B400007FD9D1012034E01E4B1B6803F00F03DD
:1010C400AB4207D9EAB21B4B1A701B6803F00F033B
:1010D400AB422DD1236813F0040F06D0164A93684F
:1010E40023F4E053E1680B439360236813F0080F83
:1010F40007D0114A936823F46043216943EAC1038A
:10110400936000F047F80C4B9B68C3F303130B4A3E
:10111400D35CD8400A4B18600A4B1868FFF7FAFBF7
:10112400002070BD012070470120FAE70120F8E794
:101134000120F6E7003C024000380240302200085B
:101144001000002018000020014B1868704700BFF1
:101154001000002008B5FFF7F7FF044B9B68C3F3AA
:101164008223034AD35CD84008BD00BF0038024044
:101174002822000808B5FFF7E7FF044B9B68C3F378
:101184004233034AD35CD84008BD00BF0038024054
:101194002822000808B5604B9B6803F00C03082B59
:1011A40007D00C2B5FD0042B01D05C4808BD5C48F1
:1011B400FCE7594B5A6802F03F025B6813F4800F56
:1011C4002CD0554B5868C0F388104FEA401CBCEB38
:1011D400000C6EEB0E0E4FEA8E1343EA9C634FEA4B
:1011E4008C11B1EB0C0163EB0E03DB0043EA51738A
:1011F400C90011EB000C43F10003590200234FEA2C
:101204004C2041EADC51FEF7DBFF434B5B68C3F340
:10121400014301335B00B0FBF3F0C7E73E4B586872
:10122400C0F388104FEA401CBCEB000C6EEB0E0EB2
:101234004FEA8E1343EA9C634FEA8C11B1EB0C0125
:1012440063EB0E03DB0043EA5173C90011EB000C9E
:1012540043F10003990200234FEA8C2041EA9C5198
:10126400FEF7AEFFD1E72C4B5A6802F03F025B68F1
:1012740013F4800F2AD0284B5868C0F388104FEA23
:10128400401CBCEB000C6EEB0E0E4FEA8E1343EACF
:101294009C634FEA8C11B1EB0C0163EB0E03DB0092
:1012A40043EA5173C90011EB000C43F100035902E6
:1012B40000234FEA4C2041EADC51FEF781FF164B34
:1012C4005B68C3F30273B0FBF3F06FE7124B58682B
:1012D400C0F388104FEA401CBCEB000C6EEB0E0E02
:1012E4004FEA8E1343EA9C634FEA8C11B1EB0C0175
:1012F40063EB0E03DB0043EA5173C90011EB000CEE
:1013040043F10003990200234FEA8C2041EA9C51E7
:10131400FEF756FFD3E700BF003802400024F40074
:1013240000127A00002800F0018270B582B00446F1
:10133400036813F0010F41D0994B9B6803F00C0331
:10134400042B32D0964B9B6803F00C03082B27D058
:10135400934B9B6803F00C030C2B59D06368B3F5D3
:10136400803F5BD0B3F5A02F5ED08D4B1A6822F47A
:1013740080321A601A6822F480221A606368002B93
:101384005CD0FFF713FB0546854B1B6813F4003F45
:1013940014D1FFF70BFB401B6428F5D90320CCE1E3
:1013A4007F4B5B6813F4800FD2D07D4B1B6813F422
:1013B400003F03D06368002B00F0BA81236813F068
:1013C400020F60D0764B9B6813F00C0F4AD0744B1D
:1013D4009B6803F00C03082B3FD0714B9B6803F010
:1013E4000C030C2B69D0E368002B75D06D4B0122E4
:1013F4001A60FFF7DBFA0546694B1B6813F0020F0E
:1014040061D1FFF7D3FA401B0228F5D9032094E1F8
:10141400634B5B6813F4800FA0D0C6E7604A13687F
:1014240043F480331360A9E75D4B1A6842F48022C9
:101434001A601A6842F480321A609FE7FFF7B6FA1E
:101444000546574B1B6813F4003FB7D0FFF7AEFABD
:10145400401B6428F5D903206FE1514B5B6813F4FA
:10146400800FBAD14E4B1B6813F0020F03D0E36810
:10147400012B40F05F814A4A136823F0F803216985
:1014840043EAC1031360236813F0080F49D063696A
:10149400002B33D0434B0122C3F8802EFFF786FA8A
:1014A40005463F4B5B6F13F0020F3AD1FFF77EFA0C
:1014B400401B0228F5D903203FE1394B5B6813F444
:1014C400800F90D1CEE7364A136823F0F8032169E0
:1014D40043EAC1031360D6E7324B00221A60FFF7D8
:1014E40065FA05462E4B1B6813F0020FCBD0FFF7AD
:1014F4005DFA401B0228F5D903201EE1294B002286
:10150400C3F8802EFFF752FA0546254B5B6F13F0A4
:10151400020F06D0FFF74AFA401B0228F5D9032030
:101524000BE1236813F0040F76D01D4B1B6C13F0F2
:10153400805F33D100230193194B1A6C42F080521F
:101544001A641B6C03F080530193019B0125164B15
:101554001B6813F4807F29D0A368012B3AD0052B94
:101564003ED00F4B1A6F22F001021A671A6F22F055
:1015740004021A67A368002B3CD0FFF717FA06464B
:10158400074B1B6F13F0020F45D1FFF70FFA801BB7
:1015940041F288339842F3D90320CEE00025D6E700
:1015A4000038024000004742007000406B4A136854
:1015B40043F480731360FFF7F9F90646674B1B6821
:1015C40013F4807FC8D1FFF7F1F9801B0228F5D905
:1015D4000320B2E0624A136F43F001031367C9E7C3
:1015E4005F4B1A6F42F004021A671A6F42F001024D
:1015F4001A67BFE7FFF7DAF90646594B1B6F13F07A
:10160400020F08D0FFF7D2F9801B41F288339842C9
:10161400F3D9032091E0EDB9A369002B00F08C808D
:101624004F4A926802F00C02082A54D0022B17D0B9
:101634004C4B00221A66FFF7B9F90446484B1B6865
:1016440013F0007F45D0FFF7B1F9001B0228F5D94C
:10165400032072E0424A136C23F080531364DBE7E7
:10166400404B00221A66FFF7A1F905463C4B1B6864
:1016740013F0007F06D0FFF799F9401B0228F5D933
:1016840003205AE0E369226A1343626A43EA82133D
:10169400A26A5208013A43EA0243E26A43EA026355
:1016A400226B43EA02732E4A53602E4B01221A66C0
:1016B400FFF77CF904462A4B1B6813F0007F06D120
:1016C400FFF774F9001B0228F5D9032035E0002048
:1016D40033E0002031E0012B31D0214B5B6803F46F
:1016E4008001E26991422CD103F03F02216A8A42CF
:1016F40029D1616A47F6C0721A40B2EB811F24D126
:1017040003F44031A26A5208013AB1EB024F1ED1F0
:1017140003F07062E16AB2EB016F1AD103F0E043A7
:10172400226BB3EB027F16D1002006E00120704744
:10173400012002E0012000E0002002B070BD012081
:10174400FBE70120F9E70120F7E70120F5E7012095
:10175400F3E70120F1E70120EFE700BF007000404C
:10176400003802400000474290F83D30DBB2012BC4
:1017740037D1022380F83D300268D36843F0010377
:10178400D3600368194A934220D0B3F1804F1DD02F
:10179400A2F57C42934219D002F58062934215D09F
:1017A40002F58062934211D002F5784293420DD043
:1017B40002F57052934209D0A2F59432934205D0B7
:1017C4001A6842F001021A60002070479A6802F019
:1017D4000702062A07D01A6842F001021A600020A4
:1017E4007047012070470020704700BF000001408F
:1017F4000268D36823F00103D3600368196A41F2D5
:101804001112114208D1196A40F24442114203D123
:101814001A6822F001021A60012380F83D3000208A
:101824007047704770477047704710B504460368A7
:101834001A6912F0020F11D0DA6812F0020F0DD0FB
:101844006FF002021A610123037703689B6913F0A6
:10185400030F70D0FFF7E6FF0023237723681A698C
:1018640012F0040F12D0DA6812F0040F0ED06FF0E9
:1018740004021A610223237723689B6913F4407FCF
:101884005FD02046FFF7CEFF0023237723681A6931
:1018940012F0080F12D0DA6812F0080F0ED06FF0B1
:1018A40008021A61042323772368DB6913F0030F0A
:1018B4004ED02046FFF7B6FF0023237723681A692A
:1018C40012F0100F12D0DA6812F0100F0ED06FF071
:1018D40010021A61082323772368DB6913F4407F1D
:1018E4003DD02046FFF79EFF0023237723681A6923
:1018F40012F0010F03D0DA6812F0010F36D1236819
:101904001A6912F0800F03D0DA6812F0800F34D114
:1019140023681A6912F0400F03D0DA6812F0400FFE
:1019240032D123681A6912F0200F03D0DA6812F05A
:10193400200F30D110BDFFF774FF2046FFF773FF6F
:101944008AE72046FFF76DFF2046FFF76CFF9BE711
:101954002046FFF766FF2046FFF765FFACE7204609
:10196400FFF75FFF2046FFF75EFFBDE76FF0010260
:101974001A612046FEF734FDC1E76FF080021A6158
:10198400204600F0E6F8C3E76FF040021A612046F3
:10199400FFF74AFFC5E76FF020021A61204600F006
:1019A400D7F8C7E70368304A904212D0B0F1804FAD
:1019B4000FD0A2F57C4290420BD002F58062904297
:1019C40007D002F58062904203D002F5784290423B
:1019D40003D123F070034A681343234A90422AD068
:1019E400B0F1804F27D0A2F57C42904223D002F57B
:1019F400806290421FD002F5806290421BD002F5B3
:101A04007842904217D002F57052904213D002F5FA
:101A1400806290420FD002F5806290420BD0A2F512
:101A24009832904207D002F58062904203D002F5CA
:101A34008062904203D123F44073CA68134323F0B5
:101A440080034A69134303608B68C3620B68836233
:101A5400054B984203D003F58063984201D10B698A
:101A640003630123436170470000014040B310B594
:101A7400044690F83D30F3B1022384F83D3021460A
:101A840051F8040BFFF78EFF012384F8463084F8E5
:101A94003E3084F83F3084F8403084F8413084F894
:101AA400423084F8433084F8443084F8453084F874
:101AB4003D30002010BD80F83C30FEF78DFEDBE7A2
:101AC4000120704790F83C20012A3DD010B4034611
:101AD400012280F83C20022280F83D2002685068F0
:101AE400946820F0700C086840EA0C0050601A6892
:101AF400164882421AD0B2F1804F17D0A0F57C402C
:101B0400824213D000F5806082420FD000F58060DD
:101B140082420BD000F57840824207D000F5705025
:101B2400824203D0A0F59430824204D124F0800490
:101B3400496821439160012283F83D20002083F805
:101B44003C005DF8044B70470220704700000140E0
:101B54007047704710B504460268136923F4405374
:101B6400C1680B431361836802691A4343691A43CA
:101B7400C3691A430168CB6823F4164323F00C03AA
:101B84001343CB600268536923F4407381690B43A8
:101B940053610368314A934206D002F5806293424E
:101BA40002D0FFF7D7FA01E0FFF7E4FAE369B3F5EF
:101BB400004F29D00021031849411B1841F10001AD
:101BC400C90041EA5371DB00181863684FEA8302C5
:101BD4004FEA937341F10001FEF7F2FA204AA2FBA7
:101BE40000314909642303FB11031B013233A2FBB7
:101BF40003235B0903F0F00202EB011203F00F036D
:101C0400216813448B6010BD0023021843EB0301C9
:101C1400121841F10001C90041EA5271D2001018B2
:101C240041F10001626892185B41FEF7C9FA0C4A5F
:101C3400A2FB00314909642303FB1103DB003233A7
:101C4400A2FB03235B095A0002F4F87202EB0112AF
:101C540003F00703216813448B60D4E700100140AC
:101C64001F85EB512DE9F84305460F461646994664
:101C7400DDF820802B681C6837EA04040CBF0124BB
:101C84000024B4422DD1B8F1FF3FF3D0B8F1000FD6
:101C940005D0FEF78BFEA0EB09004045EAD92A687F
:101CA40002F10C0353E8003F23F4D0730C3242E8F2
:101CB40000310029F3D12A6802F1140353E8003FEC
:101CC40023F00103143242E800310029F3D1202328
:101CD40085F83D3085F83E30002385F83C300320FC
:101CE40000E00020BDE8F88358B310B5044690F82E
:101CF4003D300BB3242384F83D302268D36823F4A9
:101D04000053D3602046FFF725FF2268136923F4AC
:101D1400904313612268536923F02A0353612268B4
:101D2400D36843F40053D36000202064202384F854
:101D34003D3084F83E3010BD80F83C30FEF786FD1F
:101D4400D8E7012070472DE9F04182B01E4690F893
:101D54003D30DBB2202B54D104460D469046002979
:101D640053D0002A53D090F83C30012B51D001239A
:101D740080F83C3000230364212380F83D30FEF7D3
:101D840015FE0746A4F82480A4F82680A368B3F5BA
:101D9400805F05D04FF00008002384F83C3012E047
:101DA400236913B14FF00008F6E7A8460025F3E7CE
:101DB40038F8023B2268C3F308035360E28C92B202
:101DC400013A92B2E284E38C9BB273B100963B4633
:101DD400002280212046FFF745FFE0B9002DE7D01F
:101DE40015F8012B23685A60E8E700963B46002269
:101DF40040212046FFF736FF78B9202384F83D3090
:101E040000E0022002B0BDE8F0810120FAE70120E1
:101E1400F8E70220F6E70320F4E70320F2E70000E6
:101E2400DFF834D00D480E490E4A002302E0D4589E
:101E3400C4500433C4188C42F9D30B4A0B4C00230E
:101E440001E013600432A242FBD3FEF759FD00F017
:101E540019F8FEF719FC704700000220000000206A
:101E64001C000020502200081C000020A8010020B3
:101E7400FEE702440346934200D1704703F8011B76
:101E8400F9E7000070B50D4D0D4C641BA41000263D
:101E9400A64209D10B4D0C4C00F076F9641BA4103A
:101EA4000026A64205D170BD55F8043B984701367B
:101EB400EEE755F8043B98470136F2E7482200085C
:101EC40048220008482200084C2200082DE9F04767
:101ED400089D0C46002B4ED194468C458646B2FA9A
:101EE40082F262D94AB1C2F12003914020FA03F38D
:101EF4000CFA02FC194300FA02FE4FEA1C471FFACF
:101F04008CF6B1FBF7F44FEA1E4307FB141143EAC6
:101F1400014304FB06F199420AD91CEB030304F1C3
:101F2400FF3080F01281994240F20F81023C6344F9
:101F3400591A1FFA8EF3B1FBF7F007FB101143EAAD
:101F4400014300FB06F69E420AD91CEB030300F191
:101F5400FF3180F0FC809E4240F2F98063440238F5
:101F64009B1B40EA044000211DB1D3400022C5E977
:101F74000032BDE8F0878B4205D90DB1C5E90001F7
:101F840000210846F5E7B3FA83F1002946D1A342BC
:101F940002D39042C0F0F080861A64EB0303012060
:101FA400002DE6D0C5E90063E3E7002A40F0908005
:101FB400A1EB0C044FEA1C481FFA8CF70121B4FB77
:101FC400F8F64FEA1E4308FB164443EA044307FBB2
:101FD40006F0984208D91CEB030306F1FF3402D241
:101FE400984200F2CD8026461C1A1FFA8EF3B4FBE9
:101FF400F8F008FB104443EA044300FB07F79F4250
:1020040008D91CEB030300F1FF3402D29F4200F213
:10201400B0802046DB1B40EA0640A5E7C1F120065C
:102024008B4022FA06F71F4320FA06FC04FA01F358
:1020340043EA0C03F44000FA01F8380C4FEA134960
:10204400B4FBF0FE1FFA87FC00FB1E4449EA04447B
:102054000EFB0CF9A14502FA01F20AD93C190EF162
:10206400FF3A80F08480A14540F28180AEF1020EF7
:102074003C44A4EB09041FFA83F9B4FBF0F300FB1E
:10208400134449EA044403FB0CFCA44507D93C1956
:1020940003F1FF3067D2A44565D9023B3C4443EACF
:1020A4000E40A0FB0293A4EB0C049C42CE469C463B
:1020B40051D34ED055B1B8EB0E0364EB0C0404FAC3
:1020C40006F6CB401E43CC40C5E90064002150E72E
:1020D400C2F1200320FA03F10CFA02FC24FA03F300
:1020E40094400C434FEA1C4800FA02FE1FFA8CF796
:1020F400B3FBF8F008FB1031230C43EA014300FB67
:1021040007F1994208D91CEB030300F1FF362CD2E6
:1021140099422AD9023863445B1AA4B2B3FBF8F19A
:1021240008FB113344EA034401FB07F3A34208D933
:102134001CEB040401F1FF3613D2A34211D9023976
:102144006444E41A41EA004139E70446F0E60846EB
:1021540006E7C845AED2B9EB020E63EB070C0138B3
:10216400A8E73146EDE7034699E73046D4E7D6467B
:102174007FE7634402384DE70646234608460FE7E7
:10218400023E634430E700BFF8B500BFF8BC08BCAA
:102194009E467047F8B500BFF8BC08BC9E46704721
:1021A400636865636B2073797320760A000000000E
:1021B400636865636B2073656E736F720A00000059
:1021C400426F61726420696E2077616974696E6719
:1021D400207374617465202D20706C6561736520B3
:1021E40070726573732074686520656D65726765C8
:1021F4006E637920627574746F6E0A0074696D651C
:1022040072206572726F723A20756E6B6E6F776EA4
:102214002074696D65720A0046534D206572726FB1
:10222400720A000000000000010203040000000024
:0C22340000000000010203040607080976
:0822400090FCFF7F010000008B
:042248001D0200086B
:04224C00F90100088C
:10225000000000003902000801000000BD02000873
:0C2260000024F400010000001000000049
:0400000508001E25AC
:00000001FF
