:020000040800F2
:1000000000000220952B0008ED130008EF130008F4
:10001000F1130008F3130008F513000800000000B6
:10002000000000000000000000000000F7130008BE
:10003000F913000800000000FB130008FD1300087E
:10004000E52B0008E52B0008E52B0008E52B000850
:10005000E52B0008E52B0008E52B0008E52B000840
:10006000E52B0008E52B0008E52B0008E52B000830
:10007000E52B0008E52B0008E52B0008E52B000820
:10008000E52B0008E52B0008E52B0008E52B000810
:10009000E52B0008E52B0008E52B0008E52B000800
:1000A000E52B0008E52B0008E52B0008E52B0008F0
:1000B000E52B0008E52B0008E52B0008E52B0008E0
:1000C000E52B0008E52B0008E52B0008E52B0008D0
:1000D000E52B0008E52B0008E52B0008E52B0008C0
:1000E00005140008E52B0008E52B0008E52B0008A7
:1000F000E52B0008E52B0008E52B0008E52B0008A0
:10010000E52B0008E52B0008E52B0008E52B00088F
:10011000E52B0008E52B0008111400082114000845
:10012000E52B0008E52B0008E52B0008E52B00086F
:10013000E52B00080000000000000000E52B00088F
:10014000E52B0008E52B0008E52B0008E52B00084F
:10015000E52B0008E52B0008E52B0008E52B00083F
:10016000E52B0008E52B0008E52B0008E52B00082F
:10017000E52B0008E52B0008E52B00080000000037
:1001800000000000E52B0008000000000000000057
:10019000E52B00080000000000000000E52B00082F
:1001A000000000000000000000000000E52B000837
:1001B000E52B0008E52B0008E52B0008E52B0008DF
:0401C000E52B000823
:1001D00001F0FF01102A2BDB10F0070F08D010F8F8
:1001E000013B013A8B422DD010F0070F42B3F6D1FC
:1001F000F0B441EA012141EA014122F007047FF015
:1002000000070023F0E80256083C85EA010586EA6B
:10021000010685FA47F5A3FA87F586FA47F6A5FAA7
:1002200087F68EB9EED1F0BC01F0FF0102F00702B3
:1002300032B110F8013B013A83EA010313B1F8D15E
:100240000020704701387047002D06BF354603383F
:10025000073815F0010F07D1013015F4807F02BF78
:10026000013015F4C03F0130F0BC0138704700BFC9
:10027000034613F8012B002AFBD1181A01387047E6
:1002800081F0004102E000BF83F0004330B54FEA47
:1002900041044FEA430594EA050F08BF90EA020FB4
:1002A0001FBF54EA000C55EA020C7FEA645C7FEA47
:1002B000655C00F0E2804FEA5454D4EB5555B8BF6A
:1002C0006D420CDD2C4480EA020281EA030382EADB
:1002D000000083EA010180EA020281EA0303362D6D
:1002E00088BF30BD11F0004F4FEA01314FF4801C40
:1002F0004CEA113102D0404261EB410113F0004F52
:100300004FEA03334CEA133302D0524263EB430308
:1003100094EA050F00F0A780A4F10104D5F1200EA6
:100320000DDB02FA0EFC22FA05F2801841F1000101
:1003300003FA0EF2801843FA05F359410EE0A5F1D5
:1003400020050EF1200E012A03FA0EFC28BF4CF006
:10035000020C43FA05F3C01851EBE37101F00045BC
:1003600007D54FF0000EDCF1000C7EEB00006EEBC9
:100370000101B1F5801F1BD3B1F5001F0CD3490853
:100380005FEA30004FEA3C0C04F101044FEA4452AA
:1003900012F5800F80F09A80BCF1004F08BF5FEA31
:1003A000500C50F1000041EB045141EA050130BD11
:1003B0005FEA4C0C404141EB0101013C28BFB1F523
:1003C000801FE9D291F0000F04BF01460020B1FA6E
:1003D00081F308BF2033A3F10B03B3F120020CDA41
:1003E0000C3208DD02F1140CC2F10C0201FA0CF01F
:1003F00021FA02F10CE002F11402D8BFC2F1200C84
:1004000001FA02F120FA0CFCDCBF41EA0C01904039
:10041000E41AA2BF01EB0451294330BD6FEA040482
:100420001F3C1CDA0C340EDC04F11404C4F120026D
:1004300020FA04F001FA02F340EA030021FA04F37F
:1004400045EA030130BDC4F10C04C4F1200220FAD6
:1004500002F001FA04F340EA0300294630BD21FA14
:1004600004F0294630BD94F0000F83F4801306BFDA
:1004700081F480110134013D4EE77FEA645C18BFCE
:100480007FEA655C29D094EA050F08BF90EA020F65
:1004900005D054EA000C04BF1946104630BD91EA5D
:1004A000030F1EBF0021002030BD5FEA545C05D160
:1004B0004000494128BF41F0004130BD14F580049F
:1004C0003CBF01F5801130BD01F0004545F0FE4113
:1004D00041F470014FF0000030BD7FEA645C1ABF48
:1004E000194610467FEA655C1CBF0B46024650EA7F
:1004F000013406BF52EA033591EA030F41F40021AB
:1005000030BD00BF90F0000F04BF0021704730B530
:100510004FF4806404F132044FF000054FF0000105
:1005200050E700BF90F0000F04BF0021704730B5C6
:100530004FF4806404F1320410F0004548BF40429B
:100540004FF000013EE700BF42004FEAE2014FEAF0
:1005500031014FEA02701FBF12F07F4393F07F4FCB
:1005600081F06051704732F07F4208BF704793F0CE
:100570007F4F04BF41F40021704730B54FF46074E1
:1005800001F0004521F000411CE700BF50EA0102E4
:1005900008BF704730B54FF000050AE050EA01028D
:1005A00008BF704730B511F0004502D5404261EBFD
:1005B00041014FF4806404F132045FEA915C3FF43E
:1005C000D8AE4FF003025FEADC0C18BF03325FEADB
:1005D000DC0C18BF033202EBDC02C2F1200300FA8C
:1005E00003FC20FA02F001FA03FE40EA0E0021FAB1
:1005F00002F11444BDE600BF70B54FF0FF0C4CF49F
:10060000E06C1CEA11541DBF1CEA135594EA0C0F50
:1006100095EA0C0F00F0DEF82C4481EA030621EA8B
:100620004C5123EA4C5350EA013518BF52EA0335C6
:1006300041F4801143F4801338D0A0FB02CE4FF078
:100640000005E1FB02E506F00042E0FB03E54FF0A8
:100650000006E1FB03569CF0000F18BF4EF0010EA0
:10066000A4F1FF04B6F5007F64F5407404D25FEA9C
:100670004E0E6D4146EB060642EAC62141EA55514F
:100680004FEAC52040EA5E504FEACE2EB4F1FD0C91
:1006900088BFBCF5E06F1ED8BEF1004F08BF5FEA0F
:1006A000500E50F1000041EB045170BD06F00046C1
:1006B00046EA010140EA020081EA0301B4EB5C046E
:1006C000C2BFD4EB0C0541EA045170BD41F4801166
:1006D0004FF0000E013C00F3AB8014F1360FDEBF8B
:1006E000002001F0004170BDC4F10004203C35DA67
:1006F0000C341BDC04F11404C4F1200500FA05F3EA
:1007000020FA04F001FA05F240EA020001F000428A
:1007100021F0004110EBD37021FA04F642EB060100
:100720005EEA430E08BF20EAD37070BDC4F10C042A
:10073000C4F1200500FA04F320FA05F001FA04F2EE
:1007400040EA020001F0004110EBD37041F10001DA
:100750005EEA430E08BF20EAD37070BDC4F12005E5
:1007600000FA05F24EEA020E20FA04F301FA05F24D
:1007700043EA020321FA04F001F0004121FA04F2F5
:1007800020EA020000EBD3705EEA430E08BF20EAC5
:10079000D37070BD94F0000F0FD101F000464000FF
:1007A00041EB010111F4801F08BF013CF7D041EA81
:1007B000060195F0000F18BF704703F00046520085
:1007C00043EB030313F4801F08BF013DF7D043EA56
:1007D0000603704794EA0C0F0CEA135518BF95EA0C
:1007E0000C0F0CD050EA410618BF52EA4306D1D193
:1007F00081EA030101F000414FF0000070BD50EAB2
:10080000410606BF1046194652EA430619D094EA3B
:100810000C0F02D150EA013613D195EA0C0F05D125
:1008200052EA03361CBF104619460AD181EA030179
:1008300001F0004141F0FE4141F470014FF0000031
:1008400070BD41F0FE4141F4780170BD70B54FF0CC
:10085000FF0C4CF4E06C1CEA11541DBF1CEA13554C
:1008600094EA0C0F95EA0C0F00F0A7F8A4EB05042E
:1008700081EA030E52EA03354FEA013100F0888025
:100880004FEA03334FF0805545EA131343EA1263EE
:100890004FEA022245EA111545EA10654FEA0026A3
:1008A0000EF000419D4208BF964244F1FD0404F55C
:1008B000407402D25B084FEA3202B61A65EB0305B8
:1008C0005B084FEA32024FF480104FF4002CB6EB75
:1008D000020E75EB030E22BFB61A754640EA0C00F5
:1008E0005B084FEA3202B6EB020E75EB030E22BF35
:1008F000B61A754640EA5C005B084FEA3202B6EB76
:10090000020E75EB030E22BFB61A754640EA9C0034
:100910005B084FEA3202B6EB020E75EB030E22BF04
:10092000B61A754640EADC0055EA060E18D04FEAC2
:10093000051545EA16754FEA06164FEAC30343EA62
:1009400052734FEAC2025FEA1C1CC0D111F4801F2F
:100950000BD141EA00014FF000004FF0004CB6E728
:1009600011F4801F04BF01430020B4F1FD0C88BFC7
:10097000BCF5E06F3FF6AFAEB5EB030C04BFB6EBD2
:10098000020C5FEA500C50F1000041EB045170BDC5
:100990000EF0004E4EEA113114EB5C04C2BFD4EBF2
:1009A0000C0541EA045170BD41F480114FF0000E76
:1009B000013C90E645EA060E8DE60CEA135594EAF2
:1009C0000C0F08BF95EA0C0F3FF43BAF94EA0C0FF5
:1009D0000AD150EA01347FF434AF95EA0C0F7FF46A
:1009E00025AF104619462CE795EA0C0F06D152EABE
:1009F00003353FF4FDAE1046194622E750EA4106A2
:100A000018BF52EA43067FF4C5AE50EA41047FF4B2
:100A10000DAF52EA43057FF4EBAE12E74FF0FF3C17
:100A200006E000BF4FF0010C02E000BF4FF0010CE8
:100A30004DF804CD4FEA410C7FEA6C5C4FEA430C61
:100A400018BF7FEA6C5C1BD001B050EA410C0CBFB0
:100A500052EA430C91EA030F02BF90EA020F002012
:100A6000704710F1000F91EA030F58BF994208BF79
:100A700090422CBFD8176FEAE37040F00100704736
:100A80004FEA410C7FEA6C5C02D150EA013C07D18D
:100A90004FEA430C7FEA6C5CD6D152EA033CD3D0D8
:100AA0005DF8040B704700BF8446104662468C46D2
:100AB0001946634600E000BF01B5FFF7B7FF002805
:100AC00048BF10F1000F01BD4DF808EDFFF7F4FF2E
:100AD0000CBF012000205DF808FB00BF4DF808EDB9
:100AE000FFF7EAFF34BF012000205DF808FB00BFDC
:100AF0004DF808EDFFF7E0FF94BF012000205DF8FE
:100B000008FB00BF4DF808EDFFF7CEFF94BF0120B2
:100B100000205DF808FB00BF4DF808EDFFF7C4FFAB
:100B200034BF012000205DF808FB00BF4FEA410CF4
:100B30007FEA6C5C02D150EA013C0AD14FEA430CD7
:100B40007FEA6C5C02D152EA033C02D14FF0000014
:100B500070474FF0010070474FEA410212F5001252
:100B600015D211D56FF47873B3EB625212D94FEAF4
:100B7000C12343F0004343EA505311F0004F23FADE
:100B800002F018BF404270474FF00000704750EA33
:100B9000013005D111F0004008BF6FF000407047F0
:100BA0004FF00000704700BF4FEA4102B2F1E0434E
:100BB00024BFB3F5001CDCF1FE5C0DD901F0004C44
:100BC0004FEAC0024CEA5070B2F1004F40EB830094
:100BD00008BF20F00100704711F0804F21D113F1C0
:100BE0003872BCBF01F00040704741F480114FEAF9
:100BF0005252C2F11802C2F1200C10FA0CF320FA82
:100C000002F018BF40F001004FEAC1234FEAD3239E
:100C100003FA0CFC40EA0C0023FA02F34FEA430308
:100C2000CCE77FEA625307D150EA01331EBF4FF091
:100C3000FE4040F44000704701F0004040F0FE40AC
:100C400040F40000704700BF53B94AB9002908BFFB
:100C500000281CBF4FF0FF314FF0FF3000F00CB800
:100C6000ADF1080C6DE904CE04F0E6FEDDF804E019
:100C7000DDE9022304B07047704700BF10B5054C92
:100C8000237833B9044B13B10448AFF30080012338
:100C9000237010BDE401002000000000F45C000897
:100CA00008B5034B1BB103490348AFF3008008BDEF
:100CB00000000000E8010020F45C000810B5134BB0
:100CC0001B7843B900F00AFC114B1B68C01AB0F541
:100CD000FA7F10D810BD00240C4B1C700D4B1C70FB
:100CE0000D4801F0FBFB0D4801F0F8FB0C4B1C70AC
:100CF0000C4B1C70E6E700F0F1FB054B1860642319
:100D00003B220949094801F0D8FEE3E7060200202A
:100D10000002002007020020940200204C02002064
:100D20000502002004020020105D000808020020D7
:100D300070B58AB000240594069407940894099429
:100D40000194264B1A6B42F004021A631A6B02F0EC
:100D500004020192019A02941A6B42F080021A6313
:100D60001A6B02F080020292029A03941A6B42F00C
:100D700001021A631A6B02F001020392039A0494AF
:100D80001A6B42F002021A631B6B03F00203049316
:100D9000049B134E22466021304600F0CBFF4FF4F7
:100DA000005305934FF4041306930125079505A9F5
:100DB0000C4800F0CFFE6023059306950794089435
:100DC00005A9304600F0C6FE2A462146282000F03C
:100DD0008FFE282000F09CFE0AB070BD0038024053
:100DE0000000024000080240014B01221A707047C7
:100DF0000602002008B50A4B984209D0094B9842D8
:100E00000AD064231B220849084801F056FE08BD99
:100E1000074B01221A70FAE7064B01221A70F6E717
:100E2000940200204C0200204C5D000808020020C3
:100E3000040200200502002010B590B0224C20468C
:100E400000F018FC0A21204600F0D6FC68B300240C
:100E50001D4800F0B1FCA4F2F14007EE900AF8EE54
:100E6000E77A17EE900AFFF76FFB13A3D3E900238D
:100E7000FFF7ECFC12A3D3E90023FFF7BDFBFFF75C
:100E800093FEFFF761FBCDE90001104A322103A870
:100E900002F0DAFB03A8FFF7EBF9642382B203A99F
:100EA0000B4801F00AFE10B010BD204600F000FD16
:100EB00004B2CDE7AFF3008000000000001CA640A4
:100EC000000000000070974024030020685D0008C7
:100ED0000802002008B564230C220249024801F0F0
:100EE000ECFD08BD745D00080802002008B5124B37
:100EF0001B7833B9114B1B7893B9114B1B78ABB9E5
:100F000008BD00230C4A13700E4A012111700E4ACD
:100F100013600E4801F026FB0D4801F023FBE9E7C2
:100F2000064B00221A70FFF7D5FFE6E7044B0022BC
:100F30001A70FFF781FFE3E7060200200502002098
:100F4000040200200702002000020020940200207A
:100F50004C02002008B5084B1B78012B05D8074A26
:100F600002EBC3035B68984708BD64230A22044967
:100F7000044801F0A2FDF7E707020020000000206E
:100F8000845D00080802002072B6FEE700B585B057
:100F9000002300930193029303931348134A0260C2
:100FA000436083600361037680F82030C362104A97
:100FB0008262C3600122C26180F83030426100F079
:100FC0002DFB60B900230093012201920293694630
:100FD000054800F071FC20B905B05DF804FBFFF78F
:100FE000D3FFFFF7D1FF00BF240300200020014002
:100FF0000100000F00B585B0002300930193029318
:1010000003931348134A02604360836003610376CD
:1010100080F82030C362104A8262C3600122C2613C
:1010200080F83030426100F0F9FA60B90123009392
:101030000193002302936946054800F03DFC20B966
:1010400005B05DF804FBFFF79FFFFFF79DFF00BFB2
:10105000DC020020002101400100000F00B583B038
:101060000023009301930E480E4A026043F67F620C
:1010700042608360C822C260836101F0B1FB50B955
:101080000023009301936946054801F0D5FB20B980
:1010900003B05DF804FBFFF777FFFFF775FF00BFB4
:1010A000940200200010004000B583B0002300939C
:1010B00001930E480E4A026043F67F6242608360ED
:1010C0004FF4AF72C260836101F08AFB50B9002314
:1010D000009301936946054801F0AEFB20B903B0C7
:1010E0005DF804FBFFF750FFFFF74EFF4C020020B6
:1010F0000014004008B50A480A4B03604FF4165329
:10110000436000238360C36003610C2242618361FA
:10111000C36101F0A3FC00B908BDFFF735FF00BFB4
:10112000080200200044004000B595B034220021A0
:1011300007A802F000FB0023029303930493059396
:10114000069300931A4A116C41F080511164126C9D
:1011500002F080520092009A019316490A6822F424
:10116000404242F480420A600A6802F4404201921E
:10117000019A0222079201220A9210220B920D93E9
:1011800007A800F089FF78B90F230293002103918B
:1011900004914FF480530593069102A800F0DEFD00
:1011A00020B915B05DF804FBFFF7EEFEFFF7ECFE8B
:1011B000003802400070004008B500F069F9FFF700
:1011C000B3FFFFF7B5FDFFF7E1FEFFF713FFFFF7F2
:1011D00045FFFFF769FFFFF78DFF094801F07EF932
:1011E000084801F07BF90023074A1370074A13707F
:1011F000074A1370074A1370FFF7ACFEFCE700BF05
:10120000940200204C020020070200200602002069
:10121000050200200402002000B583B000210091E7
:101220000C4B5A6C42F480425A645A6C02F480426D
:101230000092009A01911A6C42F080521A641B6C61
:1012400003F080530193019B072000F03FFC03B0A3
:101250005DF804FB0038024000B58BB00023059315
:1012600006930793089309930368234A934205D092
:10127000224A934221D00BB05DF804FB002101917A
:101280001F4B5A6C42F480725A645A6C02F480729A
:101290000192019A02911A6B42F001021A631B6BD0
:1012A00003F001030293029B01230593032306939A
:1012B00005A9144800F04EFCDDE700210391104B16
:1012C0005A6C42F400725A645A6C02F4007203922F
:1012D000039A04911A6B42F001021A631B6B03F02C
:1012E00001030493049B022305930323069305A99A
:1012F000044800F02FFCBEE700200140002101401F
:10130000003802400000024000B583B00368184A6C
:10131000934205D0174A934216D003B05DF804FB00
:1013200000210091144B1A6C42F010021A641B6CDD
:1013300003F010030093009B0A46362000F0D8FB10
:10134000362000F0E5FBE8E7002101910A4B1A6C1A
:1013500042F020021A641B6C03F020030193019BEE
:101360000A46372000F0C4FB372000F0D1FBD4E759
:1013700000100040001400400038024000B589B061
:101380000023039304930593069307930268154B78
:101390009A4202D009B05DF804FB0021019103F5E7
:1013A000FA331A6C42F400321A641A6C02F40032F6
:1013B0000192019A02911A6B42F001021A631B6BAF
:1013C00003F001030293029B0C2303930223049373
:1013D000032306930723079303A9034800F0BAFBEE
:1013E000D8E700BF0044004000000240FEE7FEE7EF
:1013F000FEE7FEE7FEE770477047704708B500F06C
:1014000061F808BD08B54FF4005000F099FC08BD24
:1014100008B5024801F0C3F808BD00BF94020020DF
:1014200008B5024801F0BBF808BD00BF4C0200201F
:10143000034AD2F8883043F47003C2F8883070470A
:1014400000ED00E010B504460E4B1A784FF47A73A5
:10145000B3FBF2F30C4A1068B0FBF3F000F066FB4C
:1014600068B90F2C01D901200AE0002221464FF073
:10147000FF3000F03DFB054B1C60002000E0012028
:1014800010BD00BF14000020100000201800002034
:1014900008B50B4B1A6842F400721A601A6842F4DD
:1014A00080621A601A6842F480721A60032000F0A9
:1014B0000DFB0020FFF7C6FFFFF7AEFE002008BDC2
:1014C000003C0240034A1168034B1B780B44136035
:1014D000704700BF6C03002014000020014B186807
:1014E000704700BF6C0300204A4B5A6822F4403218
:1014F0005A605A6841680A435A600268536823F484
:101500008073536002685368016943EA01235360A2
:101510000268536823F0407353600268536881681F
:101520000B4353600268936823F40063936002687E
:101530009368C1680B439360826A374B9A4257D0D5
:101540000268936823F07063936002689368816A0D
:101550000B4393600268936823F0405393600268E2
:101560009368C16A0B4393600268936823F0020397
:10157000936002689368017E43EA4103936090F8A8
:101580002030002B3FD00268536843F4006353605F
:101590000268536823F46043536001684B68426AF1
:1015A000013A43EA42334B600268D36A23F4700382
:1015B000D3620168CB6AC269013A43EA0253CB6243
:1015C0000268936823F4007393600268936890F84C
:1015D000301043EA412393600268936823F48063E8
:1015E000936002689368416943EA8123936070477E
:1015F0000268936823F0706393600268936823F035
:1016000040539360B0E70268536823F4006353606B
:10161000CAE700BF002301400100000F38B310B536
:101620000446036C43B1236C13F0100F0BD0012060
:10163000002384F83C3010BDFFF70EFE00236364E6
:1016400084F83C30EFE7236C23F4885323F0020343
:1016500043F0020323642046FFF746FF0020606446
:10166000236C23F0030343F001032364E0E701202C
:101670007047000082B00023019390F83C30012BAA
:1016800000F08980012380F83C3003689A6812F0EA
:10169000010F13D19A6842F001029A60414B1B6816
:1016A000414AA2FB03239B0C03EB4303019302E09B
:1016B000019B013B0193019B002BF9D102689368C8
:1016C00013F0010F5CD0036C23F4E06323F00103FB
:1016D00043F480730364536813F4806F05D0036C84
:1016E00023F4405343F480530364036C13F4805F8A
:1016F0001BD0436C23F006034364002380F83C3086
:101700006FF022031360294B5B6813F01F0F27D182
:101710000368274A934211D002F58072934207D0A2
:10172000244A934214D0002033E000234364E4E7CA
:1017300002F50072526812F01F0FF1D19A6812F090
:10174000405F2AD19A6842F080429A60002020E0EF
:1017500002F58072526812F0100FEFD0002018E0EE
:101760000368134A934201D0002012E09A6812F0F5
:10177000405F14D19A6842F080429A60002008E0ED
:10178000036C43F010030364436C43F001034364B0
:10179000002002B070470220FBE70020F9E700209C
:1017A000F7E700BF1000002083DE1B430023014049
:1017B000002001400022014090F83C30012B19D05C
:1017C000012380F83C300268936823F001039360A2
:1017D00003689B6813F0010F07D1036C23F488534F
:1017E00023F0010343F001030364002380F83C303D
:1017F000184670470220704770B504460D460368CE
:101800009A6812F4806F03D09B6813F4807F19D11B
:10181000FFF764FE064623681A6812F0020F20D113
:10182000B5F1FF3FF7D0B5B923681B6813F0020F7D
:10183000F1D1236C43F004032364002384F83C308B
:10184000032032E0036C43F020030364002380F89C
:101850003C30012029E0FFF741FE801BA842DAD985
:10186000E2E76FF012021A60236C43F40073236402
:1018700023689A6812F0405F16D1207EB0B9DA6A08
:1018800012F4700F03D09B6813F4806F0DD1236C9A
:1018900023F480732364236C13F4805F05D1236CDD
:1018A00043F00103236400E0002070BD0020FCE74A
:1018B0000368D86C7047000030B482B000220192F7
:1018C00090F83C20012A00F0C0800346012280F8F5
:1018D0003C200A68092A40D90468E06892B202EB09
:1018E00042021E3A4FF0070C0CFA02F220EA020202
:1018F000E2601C68E0680A8802EB42021E3A8D68CA
:1019000005FA02F20243E2604A68062A3CD81C68E3
:10191000606B02EB8202053A4FF01F0C0CFA02F2E8
:1019200020EA020262631C68606B4A6802EB820272
:10193000053AB1F800C00CFA02F20243626318687B
:10194000434A904250D01868414A904259D00020F2
:1019500083F83C0002B030BC70470468206992B242
:1019600002EB42024FF0070C0CFA02F220EA0202EC
:1019700022611C6820690A8802EB42028D6805FA20
:1019800002F202432261BFE70C2A16D81D68286BB9
:1019900002EB8202233A1F2404FA02F220EA020236
:1019A0002A631D68286B4A6802EB8202233A0C887E
:1019B00004FA02F202432A63C1E71D68E86A02EBF7
:1019C0008202413A1F2404FA02F220EA0202EA6289
:1019D0001D68E86A4A6802EB8202413A0C8804FA00
:1019E00002F20243EA62AAE70A68122AABD1194A54
:1019F000506820F400005060506840F4800050604F
:101A0000A1E70A681448824201D0112A9FD1114AE5
:101A1000506820F480005060506840F4000050602E
:101A200009680D4A914292D10C4A12680C49A1FBF7
:101A30000212920C02EB820252000192019A002AD9
:101A400085D0019A013A0192F8E7022082E700BFAF
:101A5000002001400023014012000010100000206F
:101A600083DE1B43002808DB0901C9B200F1604096
:101A700000F5614080F80013704700F00F00090185
:101A8000C9B2014B1954704714ED00E000B500F0E5
:101A90000700C0F1070CBCF1040F28BF4FF0040C85
:101AA000031D062B0FD9C31E4FF0FF3E0EFA0CF09C
:101AB00021EA000199400EFA03FE22EA0E0241EAF1
:101AC00002005DF804FB0023EEE70000074AD3683C
:101AD00023F4E0631B041B0C000200F4E0600343EA
:101AE00043F0BF6343F40033D360704700ED00E080
:101AF00010B50446054BD868C0F30220FFF7C6FFB7
:101B000001462046FFF7AEFF10BD00BF00ED00E02C
:101B1000002807DB00F01F02400901239340024A1E
:101B200042F82030704700BF00E100E00138B0F11A
:101B3000807F0BD24FF0E0235861054AF02182F8F4
:101B400023100020986107221A6170470120704716
:101B500000ED00E000230F2B00F2E38070B582B0AF
:101B600065E085684FEA430E032404FA0EF425EA83
:101B70000405CC6804FA0EF42C438460446824EA1B
:101B800002044A68C2F300129A40224342605CE0B9
:101B9000DC08083450F8242003F00705AD004FF0AE
:101BA0000F0E0EFA05FE22EA0E0E0A69AA4042EA5C
:101BB0000E0240F824205CE0062200E0002202FA37
:101BC0000EF22A430234574D45F82420564A9468B1
:101BD0006FEA0C0224EA0C054E6816F4801F01D04F
:101BE0004CEA0405504CA560E46802EA04054E681E
:101BF00016F4001F01D04CEA04054B4CE560646804
:101C000002EA04054E6816F4003F01D04CEA0405D0
:101C1000454C6560246822404D6815F4803F01D032
:101C20004CEA0402404C226001330F2B77D801228A
:101C30009A400C6804EA020C32EA0404F4D14C68BD
:101C400004F00304013C012C8BD94A6802F0030222
:101C5000032A09D0C4685D000322AA4024EA0204D2
:101C60008A68AA402243C2604A6802F00302022A3C
:101C70008ED004684FEA430E032202FA0EF224EAE1
:101C800002044A6802F0030202FA0EF222430260E2
:101C90004A6812F4403FC7D000220192234A546C94
:101CA00044F480445464526C02F480420192019ADC
:101CB0009C08A51C1B4A52F8255003F0030E4FEA5E
:101CC0008E0E0F2202FA0EF225EA0205184A904201
:101CD0003FF474AF02F58062904216D002F5806244
:101CE000904214D002F58062904212D002F58062D8
:101CF000904210D002F5806290420ED002F58062D0
:101D000090423FF459AF072259E7012257E70222D8
:101D100055E7032253E7042251E705224FE702B0BB
:101D200070BD704700380140003C0140003802405F
:101D3000000002400AB18161704709048161704767
:101D400008B5054B5B69034200D108BD024B5861E1
:101D5000FFF74AF8F9E700BF003C0140002800F017
:101D60009B8070B50D4604464F4B1B6803F00F0374
:101D70008B4208D2CBB24C4A1370136803F00F03A6
:101D80008B4240F08B80236813F0020F17D013F0C2
:101D9000040F04D0454A936843F4E05393602368EA
:101DA00013F0080F04D0414A936843F460439360F2
:101DB0003E4A936823F0F003A1680B4393602368C5
:101DC00013F0010F32D06368012B21D09A1E012A33
:101DD00025D9364A126812F0020F61D033498A6859
:101DE00022F0030213438B60FFF778FB06462F4B6C
:101DF0009B6803F00C036268B3EB820F16D0FFF709
:101E00006DFB801B41F288339842F0D9032042E0F9
:101E1000264A126812F4003FE0D101203BE0234A39
:101E2000126812F0007FD9D1012034E01E4B1B68EC
:101E300003F00F03AB4207D9EAB21B4B1A701B68C1
:101E400003F00F03AB422DD1236813F0040F06D02B
:101E5000164A936823F4E053E1680B4393602368C8
:101E600013F0080F07D0114A936823F460432169E7
:101E700043EAC103936000F047F80C4B9B68C3F33F
:101E800003130B4AD35CD8400A4B18600A4B1868FE
:101E9000FFF7D8FA002070BD012070470120FAE753
:101EA0000120F8E70120F6E7003C0240003802403C
:101EB000985D00081000002018000020014B1868F1
:101EC000704700BF1000002008B5FFF7F7FF044B74
:101ED0009B68C3F38223034AD35CD84008BD00BF8C
:101EE00000380240905D000808B5FFF7E7FF044B9B
:101EF0009B68C3F34233034AD35CD84008BD00BF9C
:101F000000380240905D000808B5604B9B6803F004
:101F10000C03082B07D00C2B5FD0042B01D05C489E
:101F200008BD5C48FCE7594B5A6802F03F025B6809
:101F300013F4800F2CD0554B5868C0F388104FEA2B
:101F4000401CBCEB000C6EEB0E0E4FEA8E1343EA06
:101F50009C634FEA8C11B1EB0C0163EB0E03DB00C9
:101F600043EA5173C90011EB000C43F1000359021D
:101F700000234FEA4C2041EADC51FEF765FE434B5B
:101F80005B68C3F3014301335B00B0FBF3F0C7E7C9
:101F90003E4B5868C0F388104FEA401CBCEB000C65
:101FA0006EEB0E0E4FEA8E1343EA9C634FEA8C11E0
:101FB000B1EB0C0163EB0E03DB0043EA5173C90084
:101FC00011EB000C43F10003990200234FEA8C202F
:101FD00041EA9C51FEF738FED1E72C4B5A6802F0DB
:101FE0003F025B6813F4800F2AD0284B5868C0F377
:101FF00088104FEA401CBCEB000C6EEB0E0E4FEA53
:102000008E1343EA9C634FEA8C11B1EB0C0163EB36
:102010000E03DB0043EA5173C90011EB000C43F1DE
:102020000003590200234FEA4C2041EADC51FEF73D
:102030000BFE164B5B68C3F30273B0FBF3F06FE764
:10204000124B5868C0F388104FEA401CBCEB000CE0
:102050006EEB0E0E4FEA8E1343EA9C634FEA8C112F
:10206000B1EB0C0163EB0E03DB0043EA5173C900D3
:1020700011EB000C43F10003990200234FEA8C207E
:1020800041EA9C51FEF7E0FDD3E700BF0038024073
:102090000024F40000127A00002800F0018270B5DC
:1020A00082B00446036813F0010F41D0994B9B683E
:1020B00003F00C03042B32D0964B9B6803F00C0307
:1020C000082B27D0934B9B6803F00C030C2B59D0A3
:1020D0006368B3F5803F5BD0B3F5A02F5ED08D4B26
:1020E0001A6822F480321A601A6822F480221A6078
:1020F0006368002B5CD0FFF7F1F90546854B1B6840
:1021000013F4003F14D1FFF7E9F9401B6428F5D917
:102110000320CCE17F4B5B6813F4800FD2D07D4B62
:102120001B6813F4003F03D06368002B00F0BA81F2
:10213000236813F0020F60D0764B9B6813F00C0FEE
:102140004AD0744B9B6803F00C03082B3FD0714BB3
:102150009B6803F00C030C2B69D0E368002B75D04F
:102160006D4B01221A60FFF7B9F90546694B1B68F0
:1021700013F0020F61D1FFF7B1F9401B0228F5D926
:10218000032094E1634B5B6813F4800FA0D0C6E793
:10219000604A136843F480331360A9E75D4B1A6803
:1021A00042F480221A601A6842F480321A609FE773
:1021B000FFF794F90546574B1B6813F4003FB7D05F
:1021C000FFF78CF9401B6428F5D903206FE1514BD0
:1021D0005B6813F4800FBAD14E4B1B6813F0020FEB
:1021E00003D0E368012B40F05F814A4A136823F073
:1021F000F803216943EAC1031360236813F0080F51
:1022000049D06369002B33D0434B0122C3F8802EA1
:10221000FFF764F905463F4B5B6F13F0020F3AD1AD
:10222000FFF75CF9401B0228F5D903203FE1394B49
:102230005B6813F4800F90D1CEE7364A136823F021
:10224000F803216943EAC1031360D6E7324B002249
:102250001A60FFF743F905462E4B1B6813F0020F77
:10226000CBD0FFF73BF9401B0228F5D903201EE134
:10227000294B0022C3F8802EFFF730F90546254B85
:102280005B6F13F0020F06D0FFF728F9401B0228FE
:10229000F5D903200BE1236813F0040F76D01D4B12
:1022A0001B6C13F0805F33D100230193194B1A6C20
:1022B00042F080521A641B6C03F080530193019B1F
:1022C0000125164B1B6813F4807F29D0A368012BCE
:1022D0003AD0052B3ED00F4B1A6F22F001021A673D
:1022E0001A6F22F004021A67A368002B3CD0FFF794
:1022F000F5F80646074B1B6F13F0020F45D1FFF7A9
:10230000EDF8801B41F288339842F3D90320CEE0E8
:102310000025D6E700380240000047420070004028
:102320006B4A136843F480731360FFF7D7F80646CF
:10233000674B1B6813F4807FC8D1FFF7CFF8801B71
:102340000228F5D90320B2E0624A136F43F001037B
:102350001367C9E75F4B1A6F42F004021A671A6FDE
:1023600042F001021A67BFE7FFF7B8F80646594B7B
:102370001B6F13F0020F08D0FFF7B0F8801B41F27B
:1023800088339842F3D9032091E0EDB9A369002B7B
:1023900000F08C804F4A926802F00C02082A54D058
:1023A000022B17D04C4B00221A66FFF797F8044611
:1023B000484B1B6813F0007F45D0FFF78FF8001BD8
:1023C0000228F5D9032072E0424A136C23F08053AF
:1023D0001364DBE7404B00221A66FFF77FF80546DF
:1023E0003C4B1B6813F0007F06D0FFF777F8401BCB
:1023F0000228F5D903205AE0E369226A1343626A8E
:1024000043EA8213A26A5208013A43EA0243E26AAB
:1024100043EA0263226B43EA02732E4A53602E4B57
:1024200001221A66FFF75AF804462A4B1B6813F07C
:10243000007F06D1FFF752F8001B0228F5D90320D0
:1024400035E0002033E0002031E0012B31D0214B7A
:102450005B6803F48001E26991422CD103F03F02F2
:10246000216A8A4229D1616A47F6C0721A40B2EBEA
:10247000811F24D103F44031A26A5208013AB1EB22
:10248000024F1ED103F07062E16AB2EB016F1AD104
:1024900003F0E043226BB3EB027F16D1002006E08D
:1024A00001207047012002E0012000E0002002B07E
:1024B00070BD0120FBE70120F9E70120F7E70120CB
:1024C000F5E70120F3E70120F1E70120EFE700BF86
:1024D00000700040003802400000474290F83D3054
:1024E000DBB2012B37D1022380F83D300268D3687C
:1024F00043F00103D3600368194A934220D0B3F13B
:10250000804F1DD0A2F57C42934219D002F5806223
:10251000934215D002F58062934211D002F57842C1
:1025200093420DD002F57052934209D0A2F5943235
:10253000934205D01A6842F001021A6000207047E9
:102540009A6802F00702062A07D01A6842F00102D0
:102550001A6000207047012070470020704700BFBC
:10256000000001400268D36823F00103D3600368D0
:10257000196A41F21112114208D1196A40F244421B
:10258000114203D11A6822F001021A60012380F877
:102590003D3000207047704770477047704710B556
:1025A000044603681A6912F0020F11D0DA6812F0BB
:1025B000020F0DD06FF002021A6101230377036846
:1025C0009B6913F0030F70D0FFF7E6FF002323771A
:1025D00023681A6912F0040F12D0DA6812F0040F9F
:1025E0000ED06FF004021A610223237723689B69DF
:1025F00013F4407F5FD02046FFF7CEFF0023237700
:1026000023681A6912F0080F12D0DA6812F0080F66
:102610000ED06FF008021A61042323772368DB6968
:1026200013F0030F4ED02046FFF7B6FF00232377A9
:1026300023681A6912F0100F12D0DA6812F0100F26
:102640000ED06FF010021A61082323772368DB692C
:1026500013F4407F3DD02046FFF79EFF00232377F1
:1026600023681A6912F0010F03D0DA6812F0010F23
:1026700036D123681A6912F0800F03D0DA6812F09D
:10268000800F34D123681A6912F0400F03D0DA6842
:1026900012F0400F32D123681A6912F0200F03D0D4
:1026A000DA6812F0200F30D110BDFFF774FF20461A
:1026B000FFF773FF8AE72046FFF76DFF2046FFF71D
:1026C0006CFF9BE72046FFF766FF2046FFF765FF9C
:1026D000ACE72046FFF75FFF2046FFF75EFFBDE750
:1026E0006FF001021A612046FEF784FBC1E76FF02C
:1026F00080021A61204600F0E6F8C3E76FF040025E
:102700001A612046FFF74AFFC5E76FF020021A6101
:10271000204600F0D7F8C7E70368304A904212D04D
:10272000B0F1804F0FD0A2F57C4290420BD002F561
:102730008062904207D002F58062904203D002F599
:102740007842904203D123F070034A681343234A2E
:1027500090422AD0B0F1804F27D0A2F57C4290421F
:1027600023D002F5806290421FD002F58062904231
:102770001BD002F57842904217D002F57052904279
:1027800013D002F5806290420FD002F58062904231
:102790000BD0A2F59832904207D002F580629042A9
:1027A00003D002F58062904203D123F44073CA68DB
:1027B000134323F080034A69134303608B68C362A9
:1027C0000B688362054B984203D003F580639842FF
:1027D00001D10B690363012343617047000001408D
:1027E00040B310B5044690F83D30F3B1022384F8AD
:1027F0003D30214651F8040BFFF78EFF012384F88A
:10280000463084F83E3084F83F3084F8403084F815
:10281000413084F8423084F8433084F8443084F8FE
:10282000453084F83D30002010BD80F83C30FEF784
:102830006BFDDBE70120704790F83C20012A3DD07A
:1028400010B40346012280F83C20022280F83D208B
:1028500002685068946820F0700C086840EA0C0028
:1028600050601A68164882421AD0B2F1804F17D0D1
:10287000A0F57C40824213D000F5806082420FD0E8
:1028800000F5806082420BD000F57840824207D08C
:1028900000F57050824203D0A0F59430824204D1FA
:1028A00024F08004496821439160012283F83D208F
:1028B000002083F83C005DF8044B7047022070470D
:1028C000000001407047704710B504460268136964
:1028D00023F44053C1680B431361836802691A43B0
:1028E00043691A43C3691A430168CB6823F416434A
:1028F00023F00C031343CB600268536923F4407345
:1029000081690B4353610368314A934206D002F553
:102910008062934202D0FFF7D7FA01E0FFF7E4FAB2
:10292000E369B3F5004F29D00021031849411B1872
:1029300041F10001C90041EA5371DB0018186368D6
:102940004FEA83024FEA937341F10001FEF77CF9ED
:10295000204AA2FB00314909642303FB11031B0138
:102960003233A2FB03235B0903F0F00202EB0112F6
:1029700003F00F03216813448B6010BD002302187D
:1029800043EB0301121841F10001C90041EA527101
:10299000D200101841F10001626892185B41FEF705
:1029A00053F90C4AA2FB00314909642303FB1103CC
:1029B000DB003233A2FB03235B095A0002F4F872F6
:1029C00002EB011203F00703216813448B60D4E784
:1029D000001001401F85EB512DE9F84305460F46D5
:1029E00016469946DDF820802B681C6837EA0404F7
:1029F0000CBF01240024B4422DD1B8F1FF3FF3D025
:102A0000B8F1000F05D0FEF769FDA0EB09004045C5
:102A1000EAD92A6802F10C0353E8003F23F4D0738B
:102A20000C3242E800310029F3D12A6802F1140384
:102A300053E8003F23F00103143242E8003100293B
:102A4000F3D1202385F83D3085F83E30002385F80A
:102A50003C30032000E00020BDE8F88358B310B5F7
:102A6000044690F83D300BB3242384F83D302268AF
:102A7000D36823F40053D3602046FFF725FF226874
:102A8000136923F4904313612268536923F02A03E6
:102A900053612268D36843F40053D360002020645C
:102AA000202384F83D3084F83E3010BD80F83C305F
:102AB000FEF764FCD8E7012070472DE9F04182B0B1
:102AC0001E4690F83D30DBB2202B54D104460D4613
:102AD0009046002953D0002A53D090F83C30012B67
:102AE00051D0012380F83C3000230364212380F877
:102AF0003D30FEF7F3FC0746A4F82480A4F82680B6
:102B0000A368B3F5805F05D04FF00008002384F878
:102B10003C3012E0236913B14FF00008F6E7A846F5
:102B20000025F3E738F8023B2268C3F3080353603B
:102B3000E28C92B2013A92B2E284E38C9BB273B11E
:102B400000963B46002280212046FFF745FFE0B972
:102B5000002DE7D015F8012B23685A60E8E70096AE
:102B60003B46002240212046FFF736FF78B920235C
:102B700084F83D3000E0022002B0BDE8F081012081
:102B8000FAE70120F8E70220F6E70320F4E7032044
:102B9000F2E70000DFF834D00D480E490E4A00235A
:102BA00002E0D458C4500433C4188C42F9D30B4A01
:102BB0000B4C002301E013600432A242FBD3FEF76A
:102BC00037FC00F00BFEFEF7F7FA7047000002201A
:102BD00000000020E401002060610008E401002002
:102BE000C0040020FEE72DE9F04F85B057EC106BD4
:102BF000DDE90E9B002F0C4690461946B8BF3246C1
:102C00003B462BF0200ABBBF07F100431F460023C1
:102C10002D23B8BF1646BAF1460F0B7005D0BAF196
:102C2000450F00D10134022100E0032103AB0193E1
:102C300002AB009347EC106B4B46224600F080FE3F
:102C4000BBF1670F054619D118F0010F0ED005EB47
:102C500004080022002330463946FDF735FF08B14D
:102C6000CDF80C803022039B434521D3039B109A5F
:102C70005B1B2846136005B0BDE8F08FBBF1470F22
:102C8000E2D0BAF1460F00EB0408E2D10378302B12
:102C90000AD10022002330463946FDF715FF18B946
:102CA000C4F10104C9F80040D9F800309844D0E7D5
:102CB000591C03911A70D6E7F7B50029BABF4942EB
:102CC0002D232B2309290270437029DD0DF1070301
:102CD0001D460A271A46B1FBF7F607FB16143034D7
:102CE00002F8014C0C46632C03F1FF333146F1DC52
:102CF0003031941E03F8011C411C2346AB420AD319
:102D00000DF109039B1AAC4288BF00230233034430
:102D1000181A03B0F0BD13F8016B01F8016FEDE76D
:102D2000302330318370C170031DF1E72DE9F04F7E
:102D30008DB00C46DDF8588016461F46054600F05B
:102D400003FD036804931846FDF792FA00230A93E3
:102D5000D8F800300590073323F0070303F1080289
:102D600094F818A0D4F800B0C8F80020D3E900897E
:102D700029F000430793CDF81880C4E91289DDE9F2
:102D80000601A04B4FF0FF32FDF7D0FE70BBDDE92E
:102D900006019C4B4FF0FF32FDF7AAFE30BB00222C
:102DA000002340464946FDF799FE10B12D2384F8D3
:102DB0004330954A954BBAF1470F94BF90469846D9
:102DC000032323612BF0040323604FF000090097D5
:102DD00033460BAA2146284600F0DAF9013040F0CC
:102DE00096804FF0FF300DB0BDE8F08F42464B4665
:102DF00040464946FDF79AFE40B14B46002BBCBF0A
:102E00002D2384F84330824A824BD4E763685A1CEE
:102E100026D1062363604BF4806200232260039373
:102E20000AABCDE901A309AB0093616849EC108BB3
:102E30000DF123032846FFF7D6FEBAF1670F099973
:102E4000804615D1CB1C3BDB6368994238DC0A9B7A
:102E5000994255DB23682161D80745D54B1C42E0D8
:102E60000AF0DF02472AD6D1002BD4D10123D1E7C3
:102E7000BAF1470F07D1C81C25DB63688B4222DB00
:102E80004FF0670AE3E7BAF1650F1FD801395246E0
:102E900004F150000991FFF70FFF0A9A1318012A55
:102EA0008146236102DC2268D20701D50133236108
:102EB0009DF82330002B8AD02D2384F8433086E7F9
:102EC0004FF0650AE2E74FF0450ADFE7BAF1660F17
:102ED000BDD1002963680BDD216113B92268D007D9
:102EE00002D501330B442361A1654FF00009DFE7F0
:102EF00013B92268D20701D50233F4E70123F2E7C0
:102F00000029D4BFC1F1020201221344EBE7236878
:102F10005A0507D42369424631462846B84701304E
:102F20002BD15EE7BAF1650F40F2DC80D4E91201E3
:102F300000220023FDF7C8FD002833D0364A0123C4
:102F400031462846B84701303FF44BAFDDE9093838
:102F5000434502DB2368D8070FD5DDE9042331465A
:102F60002846B84701303FF43CAF4FF0000908F164
:102F7000FF3804F11A0AC84509DC23689B0700F1F1
:102F80000281E0680B9B9842B8BF18462BE70123EB
:102F9000524631462846B84701303FF422AF09F186
:102FA0000109E8E7099B002B38DC1B4A0123314665
:102FB0002846B84701303FF414AFDDE9093959EA32
:102FC000030302D12368D907D7D5DDE904233146AD
:102FD0002846B84701303FF404AF4FF0000A04F12F
:102FE0001A0B099B5B42534501DC4B4693E70123D7
:102FF0005A4631462846B84701303FF4F2AE0AF14E
:10300000010AEEE7FFFFEF7FA85D0008AC5D000856
:10301000B05D0008B45D0008B85D0008A36DDDF880
:1030200028A05345A8BF5346002B994636DC4FF0E5
:10303000000B29EAE97904F11A02A36D0693A3EBC8
:1030400009035B4531DC099B9A453ADC2368DA07C2
:1030500037D4099BAAEB0309069BAAEB0303994506
:10306000A8BF9946B9F1000F33DC4FF0000829EAF8
:10307000E97904F11A0B099BAAEB0303A3EB0903FB
:1030800043457FF77AAF01235A4631462846B84771
:1030900001303FF4A6AE08F10108ECE742463146A4
:1030A0002846B8470130C2D19BE601233146284665
:1030B0000692B84701303FF494AE069A0BF1010B2B
:1030C000BBE7DDE9042331462846B8470130C0D1CB
:1030D00087E6069A4B46424431462846B8470130B7
:1030E000C3D17EE6DDF828A0BAF1010F01DCDB07D1
:1030F00036D50123424631462846B84701303FF4D1
:1031000070AEDDE9042331462846B84701303FF46C
:1031100068AED4E91201002200230AF1FF3AFDF75C
:10312000D3FCC0B9534608F1010231462846B847DE
:1031300001300CD155E601235A4631462846B8479E
:1031400001303FF44EAE08F10108D045F3DB4B46A9
:1031500004F15002E0E64FF0000804F11A0BF4E726
:1031600001234246E1E701234A4631462846B84753
:1031700001303FF436AE08F10108E3680B995B1AA1
:103180004345F0DCFDE64FF0000804F11909F4E7CF
:103190002DE9F047164698468A680B69DDF82090BD
:1031A0009342B8BF1346336091F8432007460C465C
:1031B0000AB1013333602368990642BF3368023392
:1031C0003360256815F0060506D104F1190AE36895
:1031D00032689B1AAB4226DC94F843302268003BED
:1031E00018BF012392062BD404F14302414638460E
:1031F000C84701301ED02368226903F00603042B60
:1032000002BFE5683368ED1AA3680CBF25EAE575CF
:1032100000259342C4BF9B1AED1800261A34B5420C
:103220001AD1002008E00123524641463846C847DB
:10323000013003D14FF0FF30BDE8F0870135C6E71C
:10324000E1185A1C302081F84300224494F84510BC
:1032500082F843100233C7E701232246414638462D
:10326000C8470130E6D00136D9E700002DE9FF4715
:103270000F7E0C9E782F914680460C469A4601F1AF
:10328000430207D8622F0AD8002F00F0DD80582FA4
:1032900000F0C38004F1420684F842703AE0A7F1DE
:1032A0006303152BF6D801A151F823F0053300086C
:1032B000193300089532000895320008953200084D
:1032C000953200081933000895320008953200083D
:1032D00095320008953200082F340008A733000803
:1032E000E733000895320008953200085134000891
:1032F00095320008A733000895320008953200087F
:10330000EF33000833681A1D1B68326004F142066F
:1033100084F842300123A8E031682368081D30603A
:103320001E0601D50D6803E05D06FBD5B1F900501E
:103330006168002D78DA2D20002984F84300A1600F
:103340002DDA5E486D420A231646B5FBF3F103FB06
:103350001157C75D06F8017D2F46BB420D46F4D9D3
:10336000082B0BD12368DF0708D5236961689942D0
:10337000DEBF302306F8013C06F1FF36921B2261C6
:10338000CDF800A04B4603AA21464046FFF700FFB8
:1033900001306FD14FF0FF3004B0BDE8F08723F06B
:1033A00004032360CDE721683368080653F8045B03
:1033B00002D4490648BFADB26F2F4048336014BFF6
:1033C0000A230823002184F843106668A660002EB3
:1033D000BADB216821F004012160002DB4D1002E58
:1033E000B2D11646BCE7236843F02003236034487B
:1033F000782784F84570236831681F0651F8045B0C
:1034000002D45F0648BFADB23160D90744BF43F074
:10341000200323601DB11023D4E72848E9E723687F
:1034200023F020032360F6E724480A23CDE733681E
:1034300025686169181D30602E061B6801D519606A
:1034400002E06806FBD5198000232361164697E742
:1034500033681A1D32601E68626800213046FCF72E
:10346000B7FE08B1801B606063682361002384F8A5
:10347000433085E72369324649464046D04701300C
:1034800088D023689B0714D4E068039B9842B8BF98
:10349000184681E70123324649464046D04701306D
:1034A0003FF478AF0135E36803995B1AAB42F1DC76
:1034B000EAE7002504F11906F5E700BFBA5D000848
:1034C000CB5D0008002310B50446C0E90033C0E915
:1034D0000433836081814366C28183611946082277
:1034E0005C3000F028F90D4B63620D4BA3620D4B6D
:1034F000E3620D4B23630D4B24629C4206D003F123
:103500006802944202D0D0339C4205D104F15800A5
:10351000BDE8104000F086B910BD00BFB13600080C
:10352000D33600080B3700082F370008700300203F
:10353000024A0349034800F069B800BF1C0000209C
:103540005D5200082C00002041680C4B994210B5D8
:10355000044601D001F082FEA168094B994202D0D5
:10356000204601F07BFEE168064B994204D02046DC
:10357000BDE8104001F072BE10BD00BF7003002016
:10358000D80300204004002010B50B4B0B4C0C4A14
:103590001A60204600220421FFF794FF04F168001E
:1035A00001220921FFF78EFF04F1D0000222BDE8BD
:1035B00010401221FFF786BFA804002070030020EE
:1035C00031350008014800F02EB900BFB1040020D9
:1035D000014800F029B900BFB104002010B504462D
:1035E000FFF7F0FF236A1BB1BDE81040FFF7F0BF03
:1035F000044B2362044B1B68002BF5D1FFF7C4FF7B
:10360000F2E700BF49350008A80400202DE9F8437F
:103610000746884614460026D4E90195B9F1010908
:1036200005D52468002CF7D13046BDE8F883AB8976
:10363000012B07D9B5F90E30013303D0294638469E
:10364000C04706436835E9E70CB430B5174B0C1E8C
:103650001D689DB008DA8B232B604FF0FF301DB042
:10366000BDE8304002B070474FF40273ADF814303B
:1036700014BF04F1FF332346049307934FF6FF73FF
:1036800002900690ADF81630209A21AB02A9284688
:10369000019301F063FC431CBCBF8B232B60002C07
:1036A000DDD0029B00221A70D9E700BF280000205D
:1036B00010B50C46B1F90E1000F06CF80028ABBF45
:1036C000636DA3891B1823F48053ACBF6365A3818A
:1036D00010BD2DE9F0411F468B89DB0505460C46E0
:1036E000164605D5B1F90E100223002200F040F86D
:1036F000A389B4F90E1023F48053A38132463B46CC
:103700002846BDE8F04100F057B810B50C46B1F9B5
:103710000E1000F02DF8431CA38915BF606523F43B
:10372000805343F48053A38118BFA38110BDB1F926
:103730000E1000F00DB802440346934200D17047CA
:1037400003F8011BF9E700000048704768010020FA
:1037500038B5064D0023044608462B6002F01CF9DC
:10376000431C02D12B6803B1236038BDAC04002098
:1037700038B5074D04460846114600222A601A460D
:1037800002F032F9431C02D12B6803B1236038BD2B
:10379000AC04002038B5074D044608461146002207
:1037A0002A601A4602F028F9431C02D12B6803B1A3
:1037B000236038BDAC04002038B5074D04460846E8
:1037C000114600222A601A4602F02CF9431C02D14D
:1037D0002B6803B1236038BDAC04002070B50D4DDB
:1037E0000D4C641BA4100026A64209D10B4D0C4CB5
:1037F00002F080FA641BA4100026A64205D170BD19
:1038000055F8043B98470136EEE755F8043B9847D6
:103810000136F2E758610008586100085861000855
:103820005C6100087047704770472DE9F74F0369E6
:103830000C69A34207467EDB013C01F11408A3009A
:1038400000F11405009305EB8403019358F824302C
:1038500055F8242001339A4208EB8409B2FBF3F6B1
:103860002ED34FF0000AC446AE46D3465CF8043B64
:1038700098B206FB00A0020C1B0C06FB0323DEF82B
:10388000002080B292B2121A5A44DEF800004FEAC9
:10389000134A9BB2C3EB224303EB104392B242EABA
:1038A0000342E1454EF8042B4FEA234BDED2009B46
:1038B000EB582BB9019B043B9D421A462FD33C6128
:1038C000384601F0E7F9002825DB2946002058F8A2
:1038D000042BD1F800C01FFA82FE1FFA8CF3A3EB71
:1038E0000E030344120CC2EB234202EB1C429BB2B8
:1038F00043EA0243C14541F8043B4FEA2240E6D285
:1039000055F8242005EB840322B9043B9D421A4656
:103910000BD33C610136304603B0BDE8F08F12682E
:10392000043B002ACBD1013CC6E71268043B002AC5
:10393000EFD1013CEAE70020EEE7000000000000C4
:103940002DE9F04FC76997B08DED000B55EC104B8A
:10395000209E089183460C9212937FB9102000F0AC
:1039600065FE0246CBF81C0020B9A74BEF21A74803
:1039700001F0D4FCC0E901770760C760DBF81C30B8
:10398000196859B15A684A60012393408B605846C0
:1039900000F042FFDBF81C3000221A602B1EB9BF7A
:1039A00023F00043019300233360019F984BBCBF79
:1039B00001223260BB4319D1129A42F20F73136095
:1039C000C7F31303234300F0DD85219B53B9914BCB
:1039D00021E0914B03930833219A1360039817B0A9
:1039E000BDE8F08F8B4B03930333F5E79DED007B30
:1039F000002251EC170B00238DED0A7BFDF764F8D4
:103A0000804650B1129A01231360219B13B1219A71
:103A1000824B1360824B0393E0E79DED0A0B14AADF
:103A200015A9584601F0E6F9C7F30A560290002E90
:103A300078D00B9BCDF84C80C3F31303DDE90A016A
:103A400043F07F5343F44013A6F2FF361946002299
:103A5000744BFCF719FC66A3D3E90023FCF7CCFDFB
:103A600065A3D3E90023FCF711FC044630460D465C
:103A7000FCF758FD62A3D3E90023FCF7BDFD024625
:103A80000B4620462946FCF701FC04460D46FDF78F
:103A900063F800220746002320462946FDF71EF85A
:103AA00040B13846FCF73EFD22462B46FDF70CF8A8
:103AB00000B9013F162F52D85B4B03EBC703D3E984
:103AC0000023DDE90A01FDF709F8002849D0013F8C
:103AD00000231193149B9B1B5A1E45BFC3F1010386
:103AE000069300230023079254BF06930793002FE9
:103AF00039DB079B10973B44079300230993089BEE
:103B0000092B66D8052BC4BF043B0893089BA3F17F
:103B10000203CCBF00240124032B65D8DFE803F0A7
:103B20002B383657DDE914631E4406F23243202B4E
:103B3000C1BFC3F140039F4006F2124324FA03F3CE
:103B4000D6BFC3F1200347EA030004FA03F0FCF7F1
:103B5000D9FC0122A1F1F873013E139276E701230B
:103B6000B7E71190B6E7069BDB1B06937B420993F0
:103B700000231093C3E700230D930C9B002B57DC0D
:103B80000123049399461A460C920CE00123F3E7B3
:103B900000230D930C9BFB1803F1010904934B4682
:103BA000012BB8BF0123DBF81C000021042202F125
:103BB00014059D4240D94160584600F0EDFD039048
:103BC00000283CD1194B024640F2AF11CFE6012349
:103BD000DFE70124002308930D944FF0FF33049393
:103BE000994600221223CFE701230D93F5E700BF8A
:103BF00061436F63A787D23FB3C8608B288AC63FF3
:103C0000FB799F501344D33FE95D0008005E000834
:103C10000000F07FE55D0008DC5D0008B95D00088C
:103C2000B85D00080000F83F305F0008755E0008CE
:103C30000C9B04939946B6E701315200B7E7DBF8D5
:103C40001C30039A1A60B9F10E0F6FD8002C6DD09A
:103C5000002F36DDA14B07F00F0203EBC20393EDFB
:103C6000007BF8058DED0E7B4FEA271417D59C4B92
:103C7000DDE90A01D3E90823FCF7E8FDCDE90001FD
:103C800004F00F044FF00308954D5CB9DDE90E23F5
:103C9000DDE90001FCF7DAFDCDE900012BE04FF092
:103CA0000208F1E7E10709D5DDE90E01D5E90023B6
:103CB000FCF7A2FCCDE90E0108F1010864100835FB
:103CC000E3E700F007817C42844B854D04F00F024E
:103CD00003EBC203D3E90023DDE90A01FCF78CFC06
:103CE000CDE90001241100234FF00208002C40F020
:103CF000E580002BD0D1119BDDE90045002B00F0C1
:103D00004C81784B002220462946FCF7E7FE00282C
:103D100000F04381B9F1000F00F03F81049B002BBC
:103D200000F3E480DDE90A34CDE90034159B002B73
:103D300002DB0E2F40F342820D9A002A40F0678288
:103D4000099CDDF818800025B8F1000F0DD0079B05
:103D5000002B0ADD4345069AA8BF4346D21A0692B5
:103D6000079AA8EB0308D31A0793099B0BB30D9B83
:103D7000002B00F0A682002C00F0A18229462246EA
:103D8000584600F0C1FE029A01460546584600F02A
:103D900011FE02990646584600F03EFD099B1B1B8A
:103DA000099300F09182099A3146584600F0ACFE22
:103DB00002900121584600F0E7FD109B0446002BBD
:103DC00000F084821A460146584600F09DFE089B8A
:103DD000012B044603DC009B002B00F07C820026B4
:103DE000236904EB8303186900F07EFD1096C0F18F
:103DF0002000079B184410F01F0000F09182C0F1D2
:103E00002003042B40F38182069BC0F11C00034475
:103E10000693079B034480440793069B002B05DD14
:103E200002991A46584600F0C9FE0290079B002BE3
:103E300005DD21461A46584600F0C0FE0446119B97
:103E4000002B00F076820298214600F023FF002824
:103E500080F26F82002302990A22584600F0FEFC8D
:103E60000D9B02907E1E002B00F05C8200232946F1
:103E70000A22584600F0F2FC049B002B054603DCA6
:103E8000089B022B00F35E82B8F1000F05DD294686
:103E90004246584600F092FE0546109B002B00F06B
:103EA000D0826968584600F077FC0746002840F049
:103EB0007F820D4B024640F2EF2158E5E20706D51E
:103EC000D5E90023FCF798FB08F1010801236410F1
:103ED00008350BE74FF002080DE700BF305F000820
:103EE000085F00080000F03F755E00082046AD4BFB
:103EF00000222946FCF780FBCDE90001049C7E1ED0
:103F000008F101084046FCF70DFBDDE90023FCF752
:103F100073FBA54B0022FCF7B9F9A1F15073CDE971
:103F20000E010F93002C3BD1DDE900019F4B0022D5
:103F3000FCF7AAF902460B46CDE90023DDE90E2382
:103F4000FCF7EAFD002840F05781DDE90E2101F180
:103F50000043DDE90001FCF7C1FD00283FF4E2AEBB
:103F6000002425460C9BDDF80CA0DE434FF0000832
:103F70002146584600F050FC002D00F0A980B8F111
:103F8000000F05D0A84503D04146584600F044FC38
:103F90002946584600F040FC9AE03E464C46B1E7C0
:103FA000834B03EBC40353E90201039B1C440D9BA9
:103FB000002B4AD002460B4600207E49FCF746FC07
:103FC000DDE90E23FCF760F9CDE90E01DDF80CA068
:103FD000DDE90001FCF7C0FD0546FCF7A3FA024647
:103FE0000B46DDE90001FCF74FF93035CDE9000162
:103FF00002460B460AF8015BDDE90E01FCF78CFD79
:10400000002865D1DDE900236B490020FCF73CF96D
:1040100002460B46DDE90E01FCF77EFD002840F06C
:104020000D81A24500F0EA80DDE90E015D4B002222
:10403000FCF7E2FA5B4BCDE90E010022DDE900015D
:10404000FCF7DAFACDE90001C2E7DDE90E23FCF75F
:10405000D3FACDE90E01DDF80CA0A046DDE90001A0
:10406000FCF77AFD0546FCF75DFA02460B46DDE9F2
:104070000001FCF709F930350AF8015B02460B46EE
:10408000A245CDE900234FF0000223D1494BDDE9E1
:104090000E01FCF7FBF802460B46DDE90001FCF7D8
:1040A0003BFD002840F0CA80DDE90E234149002095
:1040B000FCF7EAF802460B46DDE90001FCF70EFDCD
:1040C00070B1C24608F1FF381AF8013C302BF8D025
:1040D000374655E0334BFCF78FFACDE90001BDE7D9
:1040E000DDE90A34CDE90034159B002BFFF628AE3C
:1040F0000E2F3FF725AE2E4B03EBC70393ED007B4E
:104100000C9B002B8DED047B02DAB9F1000F64D01B
:10411000DDE90045DDF80CA0DDE904232046294651
:10412000FCF794FBFCF718FD0646FCF7FBF9DDE90C
:104130000423FCF761FA02460B462046294606F1A5
:104140003004FCF7A1F80AF8014B039CAAEB040425
:10415000A14502460B4640F08280FCF797F8DDE966
:10416000042304460D46FCF7D7FC002865D1DDE9A1
:10417000042320462946FCF7A7FC08B1F3075CD4CA
:104180000299584600F048FB00238AF80030129B41
:1041900001371F60219B002B3FF420ACC3F800A027
:1041A0001CE400BF0000244000001C40000014403C
:1041B000305F00080000E03F0000F03FA24B03EB3F
:1041C000C70393ED007B0C9B002B8DED047B9FDAE6
:1041D000B9F1000F9CDC7FF4C3AE9C4B0022DDE9FB
:1041E0000401FCF709FADDE90023FCF78BFC044627
:1041F00000287FF4B5AE3E462546B4E0DDE90A343A
:10420000CDE90034159B002B01DB0E2FD6DD089A7B
:10421000012A36DC139A82B303F23343099CDDF89A
:104220001880069A1A440692079A01211A445846A1
:10423000079200F0A9FB054686E53E4653469A469E
:1042400013F8012D392A06D1039A9A42F7D103991E
:10425000302201360A701A7801321A7038E77C4B26
:104260000022FCF7C9F90022002304460D46FCF7A2
:104270002BFC00283FF450AF82E7149BC3F13603B8
:10428000CCE7099B09F1FF34A34208DBB9F1000F29
:10429000A3EB04040EDBDDF818804B46C1E7099B55
:1042A000109A0994E31A1A44DDF8188010924B46CC
:1042B0000024B6E7069BA3EB09080023B1E7029EA2
:1042C00071E5099A029970E5029672E5089B012B47
:1042D00017DC009BABB9019BC3F313039BB9019B94
:1042E00023F00046360D360536B1069B01330693A2
:1042F000079B013307930126109B002B7FF470ADC1
:104300001096012075E50026F6E73FF486AD069A83
:104310001C331A440692079A1A44984407927CE583
:104320000346F4E7049B002B2BDC089B022B09DCE3
:1043300027E0B9F1000F1DDC089B022B1ADDCDF838
:1043400010903E46049B002B7FF40CAE21460522C4
:10435000584600F083FA01460446029800F09AFCA1
:1043600000287FF7FFADDDF80CA031230AF8013BF0
:104370000136FBE50D9BCDF810903E46002B7FF4F7
:1043800083AD039F02982146FFF74FFA00F13009F1
:1043900007F8019B039B049AFB1A9A4240F3CB80D7
:1043A000029900230A22584600F058FA0290E9E7E1
:1043B0002A690232920005F10C010C3000F0A0FFD6
:1043C00001223946584600F0F9FB039B03F1010A2C
:1043D000DDE9032313440793009B03F00103A84680
:1043E000099305460AF1FF33214602980493FFF72B
:1043F0001CFA4146069000F13009029800F04AFC90
:104400002A4621460746584600F060FCC26801462D
:1044100002B3584600F000FA002F3ADA029901225E
:10442000584600F0CBFB2146029000F033FC0028F8
:1044300003DC29D119F0010F26D0B9F1390F1DD1B4
:1044400032E02846C1E700BF305F0008000014409A
:10445000000024400A90029800F01CFC0A990C907D
:10446000584600F0D9F90C9A5ABB089B53B9099BDE
:1044700043B9B9F1390F17D0002F05DD069B03F1C1
:10448000310901E0002F2ADADDF810A00AF8019BBB
:104490006EE5089B3B4304D1009B03F00103002B16
:1044A000BCD0B9F1390F36D1049F392307F8013B4D
:1044B000BA46013F1AF8013C392B5BD001333B70FF
:1044C00056E5002F06DB089B3B4306D1009B03F01B
:1044D000010313B9002AA1DCD6E7002AE1DC079B1F
:1044E0000AF8019C534557462FD0029900230A220F
:1044F000584600F0B3F9A84502904FF000034FF082
:104500000A02414658460BD100F0A8F980460546FC
:104510000AF1010A66E7DDF810A009F10109B5E723
:1045200000F09CF92946804600230A22584600F0F4
:1045300095F90546ECE7049B002BC8BF1F46039B7B
:10454000D8BF01271F444FF00008029901225846A6
:1045500000F034FB2146029000F09CFB0028A7DC11
:1045600002D119F0010FA3D1BA4617F8013D302B43
:10457000FAD0FDE4039BBB429AD1039A3123013662
:104580001370F5E4219B002B7FF423AA014BFFF766
:1045900042BA00BFDC5D000838B50546002941D0AD
:1045A00051F8043C0C1F002BB8BFE41800F0E8F8E9
:1045B0001D4A136833B9636014602846BDE838406B
:1045C00000F0E4B8A34208D9206821188B4201BF4B
:1045D00019685B6809182160EDE71A465B680BB142
:1045E000A342FAD911685018A0420BD120680144A7
:1045F000501883421160E0D118685B68536008442A
:104600001060DAE702D90C232B60D6E72068211866
:104610008B4204BF19685B68636004BF091821609E
:104620005460CAE738BD00BFB8040020024B014601
:10463000186800F025B800BF2800002070B50F4EA4
:104640000C463168054611B900F04AFE306021463B
:10465000284600F045FE431C03D14FF0FF342046AE
:1046600070BDC41C24F00304A042F8D0211A2846CF
:1046700000F036FE0130F2D1EFE700BFB4040020B5
:104680002DE9F843CD1C25F0030508350C2D38BF66
:104690000C25002D064601DBA94204D90C2333600A
:1046A0000020BDE8F883DFF8D48000F069F8D8F87E
:1046B00000301C4644BB29463046FFF7BFFF431C71
:1046C000044658D1D8F800402746002F43D1002C8B
:1046D0004BD023683946304604EB030900F000FE56
:1046E000814542D121686D1A29463046FFF7A6FF61
:1046F00001303AD023682B442360D8F800305A6840
:1047000062BBC8F800700FE02268521B20D40B2A4D
:1047100017D96119A342256018BF5960636808BFA3
:10472000C8F8001062514B60304600F02FF804F1D9
:104730000B00231D20F00700C21A1CBF1B1AA35038
:10474000AFE76268A3420CBFC8F800205A60EBE7ED
:1047500023466468AEE73C467F68B6E71A465B6866
:10476000A342FBD100235360DEE70C2333603046C5
:1047700000F00CF894E70560D6E700BFB80400200D
:104780000148FFF750B800BFB00400200148FFF710
:104790004BB800BFB004002070B5C66904460D4692
:1047A00076B91020FFF742FF0246E06120B9184BAE
:1047B00018486B2100F0B2FDC0E901660660C660D2
:1047C000E669F36883B1E369DB6853F82500B8B99B
:1047D000012101FA05F6721D9200204600F0BCFD91
:1047E00060B1C0E901560EE021220421204600F00C
:1047F000B3FDE369F060DB68002BE4D1002070BDFD
:10480000026843F825200023C0E90333F7E700BF1F
:10481000E95D0008865E000870B5C66905460C466D
:1048200076B91020FFF702FF0246E86120B9094B74
:1048300009488F2100F072FDC0E901660660C6607C
:104840003CB1EB696268DB6853F82210216043F8E1
:10485000224070BDE95D0008865E00082DE9F04148
:104860000D6907460C461E4601F1140C0020DCF8C9
:10487000003099B202FB01611E0C0B0C02FB0633E7
:1048800089B2013001EB034185424CF8041B4FEA29
:104890001346ECDC0EB3A368AB4219DC6168384602
:1048A0000131FFF779FF804628B902460C4B0D48CD
:1048B000BA2100F033FD2269023204F10C019200AA
:1048C0000C3000F01DFD21463846FFF7A5FF444699
:1048D00004EB850301355E6125612046BDE8F0816A
:1048E000755E0008865E0008B0F5803F034636BF5F
:1048F000030400201020B3F1807F3CBF1B0208306E
:10490000B3F1805F3CBF1B010430B3F1804F03D390
:10491000002B0ADB013070479B0001D50230704745
:104920005B0001D5033070472020704703680246C2
:1049300013F007000BD0D90721D4980749BF5B08B3
:104940009B08012013605CBF13600220704799B27E
:1049500009B91B0C1020D9B209B908301B0A190774
:1049600004BF1B090430990704BF9B080230D90714
:1049700003D45B0800F1010003D0136070470020EE
:10498000704720207047000010B50C460121FFF74A
:1049900003FF024628B9054B054840F2451100F0D7
:1049A000BDFC01234461036110BD00BF755E0008BA
:1049B000865E00082DE9F04F14460A6923699A4281
:1049C000A8BF23460F46A4BF0C461F46D4F810A02C
:1049D000D7F81090A36861680AEB0906B34285B066
:1049E000B8BF0131FFF7D8FE30B90246444B454805
:1049F0004FF4B17100F092FC00F1140505EB86084C
:104A00002B460022434521D307F1140104F114027F
:104A100002EB8A0201EB89030293131B153B23F07F
:104A20000303043304F11507BA4238BF042301938A
:104A3000029B03918B420CD8002E03DD58F8043DF5
:104A4000002B5BD0066105B0BDE8F08F43F8042B66
:104A5000D8E7B1F800A0BAF1000F24D004F1140E89
:104A6000A9464FF0000C5EF8047BD9F800301FFA1D
:104A700087FB9BB20AFB0B334FEA174BD9F8007048
:104A800063444FEA174C0AFB0BC707EB13479BB273
:104A900043EA0743724549F8043B4FEA174CE2D812
:104AA000019B45F803C0039BB3F802900431B9F1B0
:104AB000000F21D02B6804F1140CAE464FF0000A11
:104AC000BCF800B0BEF8027009FB0B7757449BB2EC
:104AD00043EA07434EF8043B5CF8043B4FEA134AB1
:104AE000BEF8003009FB0A3303EB174362454FEA77
:104AF000134AE5D8019FEB51043599E7013E9BE746
:104B0000755E0008865E00082DE9F843154612F030
:104B1000030207460E4607D0254C013A002354F8FD
:104B20002220FFF79BFE0646AD103DD0FC697CB904
:104B30001020FFF77BFD0246F86128B91D4B1E4887
:104B400040F2B31100F0EAFBC0E901440460C46024
:104B5000D7F81C80D8F808404CB940F2712138468B
:104B6000FFF712FF0023C8F80800044603604FF067
:104B70000009EB070AD5314622463846FFF71AFFEF
:104B8000314680463846FFF747FE46466D100BD04B
:104B9000206838B9224621463846FFF70BFF2060CF
:104BA000C0F800900446E4E73046BDE8F88300BF53
:104BB000FC5E0008E95D0008865E00082DE9F0470C
:104BC0000C464968236903EB6218A36807469146BF
:104BD0004FEA621A08F10106B3420BDB3846FFF7D1
:104BE000DBFD054648B90246284B29484FF4EF71D2
:104BF00000F094FB01315B00EEE7002300F11401AB
:104C000000F110021846534533DB20692AEAEA7A9C
:104C100004F1140319F01F0901EB8A0103EB800C66
:104C20002BD0C9F1200E8A460022186800FA09F03C
:104C300010434AF8040B53F8042B9C4522FA0EF259
:104C4000F3D8ACEB0403153B23F00303043304F166
:104C50001500844538BF0423CA500AB108F1020682
:104C6000013E38462E612146FFF7D6FD2846BDE8B5
:104C7000F08742F8040F0133C5E7043953F8042BD9
:104C800041F8042F9C45F9D8EAE700BF755E00089B
:104C9000865E00080A6903460069801A30B50ED1A5
:104CA0001433143103EB820401EB820154F8045DE8
:104CB00051F8042D954203D005D24FF0FF3030BD9E
:104CC000A342F3D3FBE70120F9E700002DE9F74FFA
:104CD00089460646114648461446FFF7DBFF051E87
:104CE00012D129463046FFF757FD024628B93F4BFF
:104CF00040F237213E4800F011FB0123C0E90435A2
:104D0000104603B0BDE8F08FBCBF4B46A14630460D
:104D1000D9F80410BABF1C4601250025FFF73CFD59
:104D2000024618B9314B40F24521E3E7D9F810703B
:104D30002669C56009F1100309F1140504F1140E88
:104D400000F1140B05EB87080EEB86060193D9469C
:104D50004FF0000C019B5EF8040B53F804AF019375
:104D60001FFA8AF3194683B2CB1A000C6344C0EBD6
:104D70001A4000EB23409BB243EA0043764549F8D2
:104D8000043B4FEA204CE5D8331B153B23F00303CB
:104D900015340433A64238BF04231D445B441E4629
:104DA0002C4644450ED308F10301491B21F00301B1
:104DB000033DA84538BF00210B4453F8041D91B1B1
:104DC00017619DE754F8041BE646080C1CFA81FCA9
:104DD000714400EB2C4089B241EA004146F8041BC3
:104DE0004FEA204CDDE7013FE7E700BF755E0008B2
:104DF000865E00082DE9F7430F46012159EC108B20
:104E00001646FFF7C9FC044630B90246234B244836
:104E100040F20F3100F082FAC9F30A55C9F31303C7
:104E20000DB143F480130193B8F1000323D0684619
:104E30000093FFF77BFDDDE90012D0B1C0F1200344
:104E400002FA03F30B43C24063610192019BA36129
:104E5000002B0CBF012202222261A5B1A5F233452D
:104E600005443D60C0F135003060204603B0BDE828
:104E7000F0836161EAE701A8FFF758FD019B6361D8
:104E800020300122E8E704EB8203A0F232403860D0
:104E90001869FFF729FDC0EB4210E5E7755E0008D1
:104EA000865E00082DE9F0478E681F46BE420B68FB
:104EB00082460C4690462DD8B1F90C2012F4906F22
:104EC00026D06569096905EB4505A3EB010905EBEA
:104ED000D5757B1C4B446D109D4238BF1D46530554
:104EE00027D52946FFF7CCFB064660B321694A4621
:104EF00000F006FAA38923F4906343F08003A381B2
:104F0000266165614E44A5EB09052660A5603E4615
:104F1000BE4200D93E4620683246414600F0C6F9FE
:104F2000A3689B1BA3602368334423600020BDE873
:104F3000F0872A4600F036FA06460028E0D12169BB
:104F40005046FFF729FB0C23CAF80030A38943F031
:104F50004003A3814FF0FF30E9E700002DE9F04F57
:104F600098468B891B069DB007460D46144610D502
:104F70000B6973B94021FFF783FB2860286130B9C2
:104F80000C233B604FF0FF301DB0BDE8F08F402395
:104F90006B610023099320238DF82930CDF80C8014
:104FA0003023DFF89C818DF82A304FF00109234629
:104FB0009A4613F8012B0AB1252AF9D1BAEB040B52
:104FC0000BD05B46224629463846FFF76BFF01307F
:104FD00000F0A780099A5A4409929AF80030002BF1
:104FE00000F09F8000234FF0FF32CDE905230AF146
:104FF000010A049307938DF853301A9354460522FF
:1050000014F8011B4E48FBF7E3F8049AD8B9D00610
:1050100044BF20238DF85330110744BF2B238DF854
:1050200053309AF800302A2B15D0079A54460020A6
:105030004FF00A0C214611F8013B303B092B4BD9AC
:10504000B0B1079214E0A0EB080309FA03F313438D
:105050000493A246D2E7039B191D1B680391002B02
:10506000BBBF5B4242F0020207930793B8BF0492B2
:1050700023782E2B0AD163782A2B32D1039B1A1D59
:105080001B68039243EAE37302340593DFF8C0A080
:10509000217803225046FBF79BF838B1049BA0EB24
:1050A0000A004022824013430134049314F8011B88
:1050B00024488DF828100622FBF78AF8002836D0FD
:1050C000214B1BBB039B073323F0070308330393D8
:1050D000099B334409936AE70CFB02320C4601201A
:1050E000A8E700230134059319464FF00A0C204627
:1050F00010F8012B303A092A03D9002BC6D00591AC
:10510000C4E70CFB012104460123F0E703AB009345
:105110002A460E4B04A93846FDF708FE421C0646F7
:10512000D6D1AB895B063FF52DAF09982CE703ABD1
:1051300000932A46054B04A93846FEF797F8EDE799
:10514000F85F0008026000082D2D0008A54E000839
:10515000FE5F0008B1F90C202DE9F0411707054664
:105160000C4656D44B68002B02DC0B6C002B3DDD4B
:10517000E66A002E3AD0002312F480522F68216A8A
:105180002B6025D0626DA389580705D56368D21AB4
:10519000636B0BB1236CD21A216AE66A002328469E
:1051A000B047411C24D00023636023692360A38996
:1051B000DA0400D56065616B2F60B9B104F1440376
:1051C000994202D02846FFF7E7F9002363630DE018
:1051D00001232846B047461C0246D4D12B68002B39
:1051E000D1D01D2B01D0162B2BD12F6000202FE00A
:1051F0002A68B4F90C3042B11D2A01D0162A22D1F6
:105200000023636023692360D5E76260226922601E
:10521000CEE70F69002FE9D093070E6808BF4B69EE
:105220000F6018BF0023A6EB07088B60B8F1000FD2
:10523000DCDD216AA66A43463A462846B047002884
:1052400008DCB4F90C3043F04003A3814FF0FF3089
:10525000BDE8F0810744A8EB0008E7E738B50B6923
:1052600005460C4613B90025284638BD18B1036A17
:105270000BB9FEF7B3F9B4F90C30002BF3D0626E22
:10528000D00704D4990502D4A06DFEF7CCFA2846C5
:105290002146FFF75FFF636EDA070546E4D4A38972
:1052A0009B05E1D4A06DFEF7BFFADDE7884210B59B
:1052B00001EB020402D98442234607D8431EA142CF
:1052C00008D011F8012B03F8012FF8E7024401463A
:1052D0008A4200D110BD13F8014D02F8014DF7E7E5
:1052E00038B5064D0023044608462B6000F08CFBC1
:1052F000431C02D12B6803B1236038BDAC040020ED
:105300000A44914200F1FF3300D1704710B511F803
:10531000014B03F8014F9142F9D110BD1FB514465E
:105320001A46094B1B680546D86854B9074B1C46FA
:10533000CDE9013400912B46054900F06FF800F0EB
:105340007FF8044BF4E700BF280000204E600008FF
:10535000206000081360000870B5A1FB02543CB93E
:105360002946FFF78DF9064628B90026304670BD5C
:105370000C220260F9E72A462146FEF7DCF9F5E740
:1053800082B001B901A942B14BB113780B60127818
:10539000101E18BF012002B070471046FBE76FF0E7
:1053A0000100F8E72DE9F041804615460C4621B989
:1053B000BDE8F0411146FFF763B92AB9FFF7ECF8F1
:1053C00000242046BDE8F08100F041F88542064601
:1053D00002D8B5EB500FF4D829464046FFF750F9F4
:1053E00007460028ECD0B5422A46214628BF32465F
:1053F000FFF786FF21464046FFF7CEF83C46E0E740
:105400000346084641B1FF2A04D98A221A604FF0A8
:10541000FF3070470A700120704700000EB403B5DA
:10542000014603AB054853F8042B0068019300F0D4
:105430003FF802B05DF804EB03B07047280000208D
:1054400008B5062000F008FA012000F0F3FA51F840
:10545000043C181F002BBCBF0B58C0187047936842
:10546000013B002B10B4936008DA9469A34201DB7E
:105470000A2903D15DF8044B00F032B91368581CB7
:105480001060197008465DF8044B7047F8B5064681
:105490000F461446D518AC4201D1002007E014F89D
:1054A000011B3A463046FFF7DAFF431CF3D1F8BD43
:1054B0002DE9F04F0D469DB014469846064618B1AA
:1054C000036A0BB9FEF78AF86B6ED90705D4AB896E
:1054D0009A0502D4A86DFEF7A6F9AB891B0701D582
:1054E0002B699BB92946304600F038F970B16B6ED4
:1054F000DC0704D54FF0FF301DB0BDE8F08FAB895D
:105500009805F7D4A86DFEF78FF9F3E70023099308
:1055100020238DF82930CDF80C803023DFF8AC81C2
:105520008DF82A304FF0010923469A4613F8012BD3
:105530000AB1252AF9D1BAEB040B0BD05B462246FF
:1055400029463046FFF7A2FF013000F0A780099AF4
:105550005A4409929AF80030002B00F09F800023F3
:105560004FF0FF32CDE905230AF1010A04930793B6
:105570008DF853301A935446052214F8011B5348F2
:10558000FAF726FE049AD8B9D10644BF20238DF835
:105590005330130744BF2B238DF853309AF8003053
:1055A0002A2B15D0079A544600204FF00A0C2146AA
:1055B00011F8013B303B092B4BD9B0B1079214E0F5
:1055C000A0EB080309FA03F313430493A246D2E7BE
:1055D000039B191D1B680391002BBBBF5B4242F06C
:1055E000020207930793B8BF049223782E2B0AD1A7
:1055F00063782A2B32D1039B1A1D1B68039243EA5E
:10560000E37302340593DFF8D4A0217803225046D7
:10561000FAF7DEFD38B1049BA0EB0A00402282407D
:1056200013430134049314F8011B29488DF8281002
:105630000622FAF7CDFD00283FD0264B1BBB039B6B
:10564000073323F0070308330393099B3B44099373
:105650006AE70CFB02320C460120A8E70023013464
:10566000059319464FF00A0C204610F8012B303AEA
:10567000092A03D9002BC6D00591C4E70CFB0121F0
:1056800004460123F0E703AB00932A46124B04A91A
:105690003046FDF74BFB0746781CD6D16B6ED90719
:1056A00005D4AB899A0502D4A86DFEF7BDF8AB8985
:1056B0005B063FF51FAF09981EE703AB00932A4630
:1056C000054B04A93046FDF7D1FDE4E7F85F00087B
:1056D000026000082D2D00088D540008FE5F0008B0
:1056E000F8B50E461446054618B1036A0BB9FDF726
:1056F00075FFA369A360A3891A0701D5236943B97C
:105700002146284600F02AF818B14FF0FF373846F6
:10571000F8BD23682269981A6369F6B28342374656
:1057200005DC21462846FFF799FD0028EDD1A36846
:10573000013BA36023685A1C22601E706269431CEF
:105740009A4204D0A389DB07E1D50A2EDFD1214696
:105750002846FFF783FD0028D9D0D6E738B5294B76
:10576000054618680C4618B1036A0BB9FDF736FFF9
:10577000B4F90C30190722D4DA0607D409222A60BA
:1057800043F04003A3814FF0FF3033E0580712D5B8
:10579000616B41B104F14403994202D02846FEF7FF
:1057A000FBFE00236363A38923F02403A38100236A
:1057B000636023692360A38943F00803A3812369FD
:1057C0004BB9A38903F42073B3F5007F03D02146BE
:1057D000284600F083F8B4F90C3013F001020AD027
:1057E0000022A26062695242A261226942B913F0AA
:1057F0008000C5D138BD990758BF6269A260F4E73F
:105800000020F7E7280000201F2938B505460C4680
:1058100004D9162303604FF0FF3038BDC26B12B1BC
:1058200052F821304BB9284600F030F822460146A4
:105830002846BDE8384000F017B8012B0AD0591CA3
:1058400003D1162303600120E7E7002142F824106A
:10585000204698470020E0E7024B01461868FFF712
:10586000D3BF00BF2800002038B5074D00230446F1
:10587000084611462B6000F0AFF8431C02D12B689C
:1058800003B1236038BD00BFAC04002000F094B821
:1058900070B50C46B1F90E10002996B015461E469B
:1058A0000DDAA38913F0800F4FF0000114BF4023DD
:1058B0004FF48063002031602B6016B070BD6A46E3
:1058C00000F048F80028ECDB019901F47041A1F5E3
:1058D0000053594259414FF48063EBE78B89F7B588
:1058E0009D0706460C4607D504F147032360236154
:1058F0000123636103B0F0BD01AB6A46FFF7C8FF47
:10590000009F054639463046FEF7BAFE48B9B4F95D
:105910000C309A05EED423F0030343F00203A38175
:10592000E2E7A389206043F08003A381019BC4E9DF
:1059300004075BB1B4F90E10304600F01DF828B131
:10594000A38923F0030343F00103A381A3891D432B
:10595000A581CFE738B5074D002304460846114618
:105960002B6000F021F8431C02D12B6803B12360A7
:1059700038BD00BFAC04002038B5064D00230446F6
:1059800008462B6000F020F8431C02D12B6803B1BD
:10599000236038BDAC040020024B58221A604FF03F
:1059A000FF307047AC040020024B58221A604FF0C1
:1059B000FF307047AC040020024B58221A604FF0B1
:1059C000FF307047AC040020024B58221A600020C0
:1059D000704700BFAC040020024B58221A604FF001
:1059E000FF307047AC040020024B58221A604FF081
:1059F000FF307047AC040020024B58221A604FF071
:105A0000FF307047AC040020044A05491368002B9E
:105A100008BF0B461844106018467047BC040020AD
:105A2000C0040020024B58221A604FF0FF3070472C
:105A3000AC040020FEE700BF2DE9F047089D0C46AE
:105A4000002B4ED194468C458646B2FA82F262D93A
:105A50004AB1C2F12003914020FA03F30CFA02FC90
:105A6000194300FA02FE4FEA1C471FFA8CF6B1FBFD
:105A7000F7F44FEA1E4307FB141143EA014304FB0A
:105A800006F199420AD91CEB030304F1FF3080F0C0
:105A90001281994240F20F81023C6344591A1FFA65
:105AA0008EF3B1FBF7F007FB101143EA014300FB53
:105AB00006F69E420AD91CEB030300F1FF3180F089
:105AC000FC809E4240F2F980634402389B1B40EA0E
:105AD000044000211DB1D3400022C5E90032BDE8D9
