:020000040800F2
:1000000000000220311A0008090700080B07000849
:100010000D0700080F070008110700080000000086
:1000200000000000000000000000000013070008AE
:10003000150700080000000017070008190700084E
:10004000811A0008811A0008811A0008811A000824
:10005000811A0008811A0008811A0008811A000814
:10006000811A0008811A0008811A0008811A000804
:10007000811A0008811A0008811A0008811A0008F4
:10008000811A0008811A0008811A0008811A0008E4
:10009000811A0008811A0008811A0008811A0008D4
:1000A000811A0008811A0008811A0008811A0008C4
:1000B000811A0008811A0008811A0008811A0008B4
:1000C000811A0008811A0008811A0008811A0008A4
:1000D000811A0008811A0008811A0008811A000894
:1000E000811A0008811A0008811A0008811A000884
:1000F000811A0008811A0008811A0008811A000874
:10010000811A0008811A0008811A0008811A000863
:10011000811A0008811A0008210700083107000829
:10012000811A0008811A0008811A0008811A000843
:10013000811A00080000000000000000811A000879
:10014000811A0008811A0008811A0008811A000823
:10015000811A0008811A0008811A0008811A000813
:10016000811A0008811A0008811A0008811A000803
:10017000811A0008811A0008811A00080000000096
:1001800000000000811A00080000000000000000CC
:10019000811A00080000000000000000811A000819
:1001A000000000000000000000000000811A0008AC
:1001B000811A0008811A0008811A0008811A0008B3
:0401C000811A000898
:1001C40053B94AB9002908BF00281CBF4FF0FF31BA
:1001D4004FF0FF3000F00CB8ADF1080C6DE904CE1F
:1001E40001F07AFCDDF804E0DDE9022304B0704795
:1001F400704700BF10B5054C237833B9044B13B1D5
:100204000448AFF300800123237010BD0C000020CC
:1002140000000000981D000808B5034B1BB10349FA
:100224000348AFF3008008BD000000001000002068
:10023400981D000830B58BB00024059406940794EB
:10024400089409940194224B1A6B42F004021A6335
:100254001A6B02F004020192019A02941A6B42F0A2
:1002640080021A631A6B02F080020292029A0394CB
:100274001A6B42F001021A631A6B02F00102039234
:10028400039A04941A6B42F002021A631B6B03F084
:1002940002030493049B0F4D22466021284600F07C
:1002A400ADFD4FF4005305934FF4041306930794E4
:1002B40005A9094800F0B2FC6023059301230693C5
:1002C4000794089405A9284600F0A8FC0BB030BD9B
:1002D40000380240000002400008024072B6FEE707
:1002E40000B585B000230093019302930393134850
:1002F400134A0260436083600361037680F8203010
:10030400C362104A8262C3600122C26180F8303045
:10031400426100F009FB60B90023009301220192BD
:1003240002936946054800F02BFB20B905B05DF83F
:1003340004FBFFF7D3FFFFF7D1FF00BF4401002008
:10034400002001400100000F00B585B00023009398
:100354000193029303931348134A0260436083603A
:100364000361037680F82030C362104A8262C3605E
:100374000122C26180F83030426100F0D5FA60B9E0
:10038400012300930193002302936946054800F07A
:10039400F7FA20B905B05DF804FBFFF79FFFFFF7FC
:1003A4009DFF00BFFC000020002101400100000F60
:1003B40000B583B00023009301930E480E4A0260F7
:1003C40043F67F6242608360C822C260836101F0A9
:1003D40001FA50B90023009301936946054801F0DE
:1003E40025FA20B903B05DF804FBFFF777FFFFF7A8
:1003F40075FF00BFB40000200010004000B583B0BA
:100404000023009301930E480E4A026043F67F6274
:10041400426083604FF4AF72C260836101F0DAF925
:1004240050B90023009301936946054801F0FEF991
:1004340020B903B05DF804FBFFF750FFFFF74EFF50
:100444006C0000200014004008B50A480A4B036001
:100454004FF41653436000238360C36003610C228E
:1004640042618361C36101F0B1FA00B908BDFFF7CD
:1004740035FF00BF280000200044004000B595B0BF
:100484003422002107A801F0FAFA0023029303930F
:1004940004930593069300931A4A116C41F080511A
:1004A4001164126C02F080520092009A0193164972
:1004B4000A6822F4404242F480420A600A6802F464
:1004C40040420192019A0222079201220A921022CA
:1004D4000B920D9307A800F035FE78B90F23029311
:1004E4000021039104914FF480530593069102A8CF
:1004F40000F08AFC20B915B05DF804FBFFF7EEFEAE
:10050400FFF7ECFE003802400070004008B500F030
:1005140045F9FFF7B3FFFFF78DFEFFF7E1FEFFF7A5
:1005240013FFFFF745FFFFF769FFFFF78DFFFEE7B6
:1005340000B583B0002100910C4B5A6C42F4804208
:100544005A645A6C02F480420092009A01911A6C27
:1005540042F080521A641B6C03F080530193019B98
:10056400072000F017FB03B05DF804FB00380240DD
:1005740000B58BB000230593069307930893099362
:100584000368234A934205D0224A934221D00BB0F8
:100594005DF804FB002101911F4B5A6C42F48072F8
:1005A4005A645A6C02F480720192019A02911A6B95
:1005B40042F001021A631B6B03F001030293029BD6
:1005C400012305930323069305A9144800F026FB91
:1005D400DDE700210391104B5A6C42F400725A6417
:1005E4005A6C02F400720392039A04911A6B42F05B
:1005F40001021A631B6B03F001030493049B02239F
:1006040005930323069305A9044800F007FBBEE7FE
:100614000020014000210140003802400000024057
:1006240000B583B00368184A934205D0174A934231
:1006340016D003B05DF804FB00210091144B1A6C32
:1006440042F010021A641B6C03F010030093009B29
:100654000A46362000F0B0FA362000F0BDFAE8E78A
:10066400002101910A4B1A6C42F020021A641B6C9F
:1006740003F020030193019B0A46372000F09CFA03
:10068400372000F0A9FAD4E700100040001400401D
:100694000038024000B589B0002303930493059306
:1006A400069307930268154B9A4202D009B05DF88D
:1006B40004FB0021019103F5FA331A6C42F4003271
:1006C4001A641A6C02F400320192019A02911A6BB4
:1006D40042F001021A631B6B03F001030293029BB5
:1006E4000C23039302230493032306930723079302
:1006F40003A9034800F092FAD8E700BF0044004081
:1007040000000240FEE7FEE7FEE7FEE7FEE7704773
:100714007047704708B500F05BF808BD08B502489B
:1007240000F037FF08BD00BFB400002008B5024840
:1007340000F02FFF08BD00BF6C000020034AD2F870
:10074400883043F47003C2F88830704700ED00E04D
:1007540010B504460E4B1A784FF47A73B3FBF2F3D8
:100764000C4A1068B0FBF3F000F044FA68B90F2C9F
:1007740001D901200AE0002221464FF0FF3000F0A9
:100784001BFA054B1C60002000E0012010BD00BFD7
:1007940004000020000000200800002008B50B4BD6
:1007A4001A6842F400721A601A6842F480621A608D
:1007B4001A6842F480721A60032000F0EBF90020FA
:1007C400FFF7C6FFFFF7B4FE002008BD003C02405F
:1007D400034A1168034B1B780B441360704700BF36
:1007E4008C01002004000020014B1868704700BFF2
:1007F4008C0100204A4B5A6822F440325A605A68ED
:1008040041680A435A600268536823F48073536052
:1008140002685368016943EA01235360026853681C
:1008240023F0407353600268536881680B4353603C
:100834000268936823F40063936002689368C16854
:100844000B439360826A374B9A4257D0026893688D
:1008540023F07063936002689368816A0B4393602A
:100864000268936823F04053936002689368C16AF6
:100874000B4393600268936823F002039360026859
:100884009368017E43EA4103936090F82030002B83
:100894003FD00268536843F40063536002685368AE
:1008A40023F46043536001684B68426A013A43EAA7
:1008B40042334B600268D36A23F47003D362016845
:1008C400CB6AC269013A43EA0253CB620268936875
:1008D40023F4007393600268936890F8301043EA3D
:1008E400412393600268936823F4806393600268F1
:1008F4009368416943EA812393607047026893686F
:1009040023F0706393600268936823F0405393600C
:10091400B0E70268536823F400635360CAE700BF7A
:10092400002301400100000F38B310B50446036CE6
:1009340043B1236C13F0100F0BD00120002384F873
:100944003C3010BDFFF714FE0023636484F83C3090
:10095400EFE7236C23F4885323F0020343F00203EC
:1009640023642046FFF746FF00206064236C23F0D5
:10097400030343F001032364E0E701207047000010
:1009840030B482B00022019290F83C20012A00F099
:10099400C0800346012280F83C200A68092A40D915
:1009A4000468E06892B202EB42021E3A4FF0070C70
:1009B4000CFA02F220EA0202E2601C68E0680A888B
:1009C40002EB42021E3A8D6805FA02F20243E2602B
:1009D4004A68062A3CD81C68606B02EB8202053A1E
:1009E4004FF01F0C0CFA02F220EA020262631C6848
:1009F400606B4A6802EB8202053AB1F800C00CFA57
:100A040002F2024362631868434A904250D0186865
:100A1400414A904259D0002083F83C0002B030BCD7
:100A240070470468206992B202EB42024FF0070C4F
:100A34000CFA02F220EA020222611C6820690A8888
:100A440002EB42028D6805FA02F202432261BFE71B
:100A54000C2A16D81D68286B02EB8202233A1F2445
:100A640004FA02F220EA02022A631D68286B4A682B
:100A740002EB8202233A0C8804FA02F202432A634C
:100A8400C1E71D68E86A02EB8202413A1F2404FAB6
:100A940002F220EA0202EA621D68E86A4A6802EB8E
:100AA4008202413A0C8804FA02F20243EA62AAE79B
:100AB4000A68122AABD1194A506820F40000506029
:100AC400506840F480005060A1E70A6814488242EC
:100AD40001D0112A9FD1114A506820F4800050603F
:100AE400506840F40000506009680D4A914292D168
:100AF4000C4A12680C49A1FB0212920C02EB82020E
:100B040052000192019A002A85D0019A013A019279
:100B1400F8E7022082E700BF0020014000230140E3
:100B2400120000100000002083DE1B43002808DBB5
:100B34000901C9B200F1604000F5614080F800137A
:100B4400704700F00F000901C9B2014B19547047F6
:100B540014ED00E000B500F00700C0F1070CBCF193
:100B6400040F28BF4FF0040C031D062B0FD9C31E1E
:100B74004FF0FF3E0EFA0CF021EA000199400EFA04
:100B840003FE22EA0E0241EA02005DF804FB0023A0
:100B9400EEE70000074AD36823F4E0631B041B0C50
:100BA400000200F4E060034343F0BF6343F4003306
:100BB400D360704700ED00E010B50446054BD868DB
:100BC400C0F30220FFF7C6FF01462046FFF7AEFF41
:100BD40010BD00BF00ED00E0002807DB00F01F029D
:100BE400400901239340024A42F82030704700BF75
:100BF40000E100E00138B0F1807F0BD24FF0E02338
:100C04005861054AF02182F82310002098610722D8
:100C14001A6170470120704700ED00E000230F2B9C
:100C240000F2E38070B582B065E085684FEA430E58
:100C3400032404FA0EF425EA0405CC6804FA0EF43D
:100C44002C438460446824EA02044A68C2F3001214
:100C54009A40224342605CE0DC08083450F82420C7
:100C640003F00705AD004FF00F0E0EFA05FE22EA61
:100C74000E0E0A69AA4042EA0E0240F824205CE003
:100C8400062200E0002202FA0EF22A430234574DF3
:100C940045F82420564A94686FEA0C0224EA0C05AD
:100CA4004E6816F4801F01D04CEA0405504CA56030
:100CB400E46802EA04054E6816F4001F01D04CEA09
:100CC40004054B4CE560646802EA04054E6816F4BA
:100CD400003F01D04CEA0405454C6560246822407D
:100CE4004D6815F4803F01D04CEA0402404C226068
:100CF40001330F2B77D801229A400C6804EA020CC6
:100D040032EA0404F4D14C6804F00304013C012CDD
:100D14008BD94A6802F00302032A09D0C4685D0033
:100D24000322AA4024EA02048A68AA402243C26039
:100D34004A6802F00302022A8ED004684FEA430E86
:100D4400032202FA0EF224EA02044A6802F00302C1
:100D540002FA0EF2224302604A6812F4403FC7D0FE
:100D640000220192234A546C44F480445464526C2B
:100D740002F480420192019A9C08A51C1B4A52F875
:100D8400255003F0030E4FEA8E0E0F2202FA0EF2E4
:100D940025EA0205184A90423FF474AF02F58062D6
:100DA400904216D002F58062904214D002F580621F
:100DB400904212D002F58062904210D002F5806217
:100DC40090420ED002F5806290423FF459AF072260
:100DD40059E7012257E7022255E7032253E7042289
:100DE40051E705224FE702B070BD7047003801405B
:100DF400003C014000380240000002400AB1816119
:100E04007047090481617047002800F09B8070B529
:100E14000D4604464F4B1B6803F00F038B4208D268
:100E2400CBB24C4A1370136803F00F038B4240F0AB
:100E34008B80236813F0020F17D013F0040F04D033
:100E4400454A936843F4E0539360236813F0080F12
:100E540004D0414A936843F4604393603E4A9368E4
:100E640023F0F003A1680B439360236813F0010F90
:100E740032D06368012B21D09A1E012A25D9364A23
:100E8400126812F0020F61D033498A6822F003021B
:100E940013438B60FFF7A8FC06462F4B9B6803F0B7
:100EA4000C036268B3EB820F16D0FFF79DFC801B26
:100EB40041F288339842F0D9032042E0264A12686E
:100EC40012F4003FE0D101203BE0234A126812F003
:100ED400007FD9D1012034E01E4B1B6803F00F03BF
:100EE400AB4207D9EAB21B4B1A701B6803F00F031D
:100EF400AB422DD1236813F0040F06D0164A936831
:100F040023F4E053E1680B439360236813F0080F64
:100F140007D0114A936823F46043216943EAC1036B
:100F2400936000F047F80C4B9B68C3F303130B4A20
:100F3400D35CD8400A4B18600A4B1868FFF708FCCA
:100F4400002070BD012070470120FAE70120F8E776
:100F54000120F6E7003C024000380240B81D0008BA
:100F64000000002008000020014B1868704700BFF3
:100F74000000002008B5FFF7F7FF044B9B68C3F39C
:100F84008223034AD35CD84008BD00BF0038024026
:100F9400B01D000808B5FFF7E7FF044B9B68C3F3D7
:100FA4004233034AD35CD84008BD00BF0038024036
:100FB400B01D000808B5604B9B6803F00C03082BB8
:100FC40007D00C2B5FD0042B01D05C4808BD5C48D3
:100FD400FCE7594B5A6802F03F025B6813F4800F38
:100FE4002CD0554B5868C0F388104FEA401CBCEB1A
:100FF400000C6EEB0E0E4FEA8E1343EA9C634FEA2D
:101004008C11B1EB0C0163EB0E03DB0043EA51736B
:10101400C90011EB000C43F10003590200234FEA0D
:101024004C2041EADC51FFF7CBF8434B5B68C3F338
:10103400014301335B00B0FBF3F0C7E73E4B586854
:10104400C0F388104FEA401CBCEB000C6EEB0E0E94
:101054004FEA8E1343EA9C634FEA8C11B1EB0C0107
:1010640063EB0E03DB0043EA5173C90011EB000C80
:1010740043F10003990200234FEA8C2041EA9C517A
:10108400FFF79EF8D1E72C4B5A6802F03F025B68E9
:1010940013F4800F2AD0284B5868C0F388104FEA05
:1010A400401CBCEB000C6EEB0E0E4FEA8E1343EAB1
:1010B4009C634FEA8C11B1EB0C0163EB0E03DB0074
:1010C40043EA5173C90011EB000C43F100035902C8
:1010D40000234FEA4C2041EADC51FFF771F8164B2C
:1010E4005B68C3F30273B0FBF3F06FE7124B58680D
:1010F400C0F388104FEA401CBCEB000C6EEB0E0EE4
:101104004FEA8E1343EA9C634FEA8C11B1EB0C0156
:1011140063EB0E03DB0043EA5173C90011EB000CCF
:1011240043F10003990200234FEA8C2041EA9C51C9
:10113400FFF746F8D3E700BF003802400024F4006C
:1011440000127A00002800F0018270B582B00446D3
:10115400036813F0010F41D0994B9B6803F00C0313
:10116400042B32D0964B9B6803F00C03082B27D03A
:10117400934B9B6803F00C030C2B59D06368B3F5B5
:10118400803F5BD0B3F5A02F5ED08D4B1A6822F45C
:1011940080321A601A6822F480221A606368002B75
:1011A4005CD0FFF721FB0546854B1B6813F4003F19
:1011B40014D1FFF719FB401B6428F5D90320CCE1B7
:1011C4007F4B5B6813F4800FD2D07D4B1B6813F404
:1011D400003F03D06368002B00F0BA81236813F04A
:1011E400020F60D0764B9B6813F00C0F4AD0744BFF
:1011F4009B6803F00C03082B3FD0714B9B6803F0F2
:101204000C030C2B69D0E368002B75D06D4B0122C5
:101214001A60FFF7E9FA0546694B1B6813F0020FE1
:1012240061D1FFF7E1FA401B0228F5D9032094E1CC
:10123400634B5B6813F4800FA0D0C6E7604A136861
:1012440043F480331360A9E75D4B1A6842F48022AB
:101254001A601A6842F480321A609FE7FFF7C4FAF2
:101264000546574B1B6813F4003FB7D0FFF7BCFA91
:10127400401B6428F5D903206FE1514B5B6813F4DC
:10128400800FBAD14E4B1B6813F0020F03D0E368F2
:10129400012B40F05F814A4A136823F0F803216967
:1012A40043EAC1031360236813F0080F49D063694C
:1012B400002B33D0434B0122C3F8802EFFF794FA5E
:1012C40005463F4B5B6F13F0020F3AD1FFF78CFAE0
:1012D400401B0228F5D903203FE1394B5B6813F426
:1012E400800F90D1CEE7364A136823F0F8032169C2
:1012F40043EAC1031360D6E7324B00221A60FFF7BA
:1013040073FA05462E4B1B6813F0020FCBD0FFF780
:101314006BFA401B0228F5D903201EE1294B002259
:10132400C3F8802EFFF760FA0546254B5B6F13F078
:10133400020F06D0FFF758FA401B0228F5D9032004
:101344000BE1236813F0040F76D01D4B1B6C13F0D4
:10135400805F33D100230193194B1A6C42F0805201
:101364001A641B6C03F080530193019B0125164BF7
:101374001B6813F4807F29D0A368012B3AD0052B76
:101384003ED00F4B1A6F22F001021A671A6F22F037
:1013940004021A67A368002B3CD0FFF725FA06461F
:1013A400074B1B6F13F0020F45D1FFF71DFA801B8B
:1013B40041F288339842F3D90320CEE00025D6E7E2
:1013C4000038024000004742007000406B4A136836
:1013D40043F480731360FFF707FA0646674B1B68F4
:1013E40013F4807FC8D1FFF7FFF9801B0228F5D9D9
:1013F4000320B2E0624A136F43F001031367C9E7A5
:101404005F4B1A6F42F004021A671A6F42F001022E
:101414001A67BFE7FFF7E8F90646594B1B6F13F04D
:10142400020F08D0FFF7E0F9801B41F2883398429D
:10143400F3D9032091E0EDB9A369002B00F08C806F
:101444004F4A926802F00C02082A54D0022B17D09B
:101454004C4B00221A66FFF7C7F90446484B1B6839
:1014640013F0007F45D0FFF7BFF9001B0228F5D920
:10147400032072E0424A136C23F080531364DBE7C9
:10148400404B00221A66FFF7AFF905463C4B1B6838
:1014940013F0007F06D0FFF7A7F9401B0228F5D907
:1014A40003205AE0E369226A1343626A43EA82131F
:1014B400A26A5208013A43EA0243E26A43EA026337
:1014C400226B43EA02732E4A53602E4B01221A66A2
:1014D400FFF78AF904462A4B1B6813F0007F06D1F4
:1014E400FFF782F9001B0228F5D9032035E000201C
:1014F40033E0002031E0012B31D0214B5B6803F451
:101504008001E26991422CD103F03F02216A8A42B0
:1015140029D1616A47F6C0721A40B2EB811F24D107
:1015240003F44031A26A5208013AB1EB024F1ED1D2
:1015340003F07062E16AB2EB016F1AD103F0E04389
:10154400226BB3EB027F16D1002006E00120704726
:10155400012002E0012000E0002002B070BD012063
:10156400FBE70120F9E70120F7E70120F5E7012077
:10157400F3E70120F1E70120EFE700BF007000402E
:101584000038024000004742704770477047704778
:10159400704710B5044603681A6912F0020F11D09F
:1015A400DA6812F0020F0DD06FF002021A61012303
:1015B400037703689B6913F0030F70D0FFF7E6FF0E
:1015C4000023237723681A6912F0040F12D0DA6813
:1015D40012F0040F0ED06FF004021A610223237775
:1015E40023689B6913F4407F5FD02046FFF7CEFF4A
:1015F4000023237723681A6912F0080F12D0DA68DF
:1016040012F0080F0ED06FF008021A61042323773A
:101614002368DB6913F0030F4ED02046FFF7B6FFB3
:101624000023237723681A6912F0100F12D0DA68A6
:1016340012F0100F0ED06FF010021A6108232377F6
:101644002368DB6913F4407F3DD02046FFF79EFFFB
:101654000023237723681A6912F0010F03D0DA6894
:1016640012F0010F36D123681A6912F0800F03D0EB
:10167400DA6812F0800F34D123681A6912F0400F2F
:1016840003D0DA6812F0400F32D123681A6912F0DD
:10169400200F03D0DA6812F0200F30D110BDFFF70D
:1016A40074FF2046FFF773FF8AE72046FFF76DFFBC
:1016B4002046FFF76CFF9BE72046FFF766FF2046B6
:1016C400FFF765FFACE72046FFF75FFF2046FFF713
:1016D4005EFFBDE76FF001021A612046FFF754FF79
:1016E400C1E76FF080021A61204600F0E6F8C3E714
:1016F4006FF040021A612046FFF74AFFC5E76FF01A
:1017040020021A61204600F0D7F8C7E70368304A80
:10171400904212D0B0F1804F0FD0A2F57C4290429B
:101724000BD002F58062904207D002F580629042AD
:1017340003D002F57842904203D123F070034A6843
:101744001343234A90422AD0B0F1804F27D0A2F508
:101754007C42904223D002F5806290421FD002F571
:10176400806290421BD002F57842904217D002F575
:101774007052904213D002F5806290420FD002F56D
:10178400806290420BD0A2F59832904207D002F5C5
:101794008062904203D002F58062904203D123F428
:1017A4004073CA68134323F080034A6913430360F8
:1017B4008B68C3620B688362054B984203D003F5C0
:1017C4008063984201D10B6903630123436170472D
:1017D4000000014040B310B5044690F83D30F3B129
:1017E400022384F83D30214651F8040BFFF78EFFA5
:1017F400012384F8463084F83E3084F83F3084F87E
:10180400403084F8413084F8423084F8433084F81E
:10181400443084F8453084F83D30002010BD80F811
:101824003C30FEF7FDFEDBE70120704790F83C20DA
:10183400012A3DD010B40346012280F83C20022244
:1018440080F83D2002685068946820F0700C0868A5
:1018540040EA0C0050601A68164882421AD0B2F16D
:10186400804F17D0A0F57C40824213D000F58060F1
:1018740082420FD000F5806082420BD000F57840A0
:10188400824207D000F57050824203D0A0F5943014
:10189400824204D124F080044968214391600122EA
:1018A40083F83D20002083F83C005DF8044B70472A
:1018B40002207047000001407047704710B504468D
:1018C4000268136923F44053C1680B4313618368AE
:1018D40002691A4343691A43C3691A430168CB680E
:1018E40023F4164323F00C031343CB6002685369BB
:1018F40023F4407381690B4353610368314A934273
:1019040006D002F58062934202D0FFF733FB01E078
:10191400FFF740FBE369B3F5004F29D0002103181A
:1019240049411B1841F10001C90041EA5371DB0030
:10193400181863684FEA83024FEA937341F1000178
:10194400FEF73EFC204AA2FB00314909642303FB55
:1019540011031B013233A2FB03235B0903F0F002E2
:1019640002EB011203F00F03216813448B6010BDD6
:101974000023021843EB0301121841F10001C900CE
:1019840041EA5271D200101841F1000162689218C4
:101994005B41FEF715FC0C4AA2FB003149096423A4
:1019A40003FB1103DB003233A2FB03235B095A0060
:1019B40002F4F87202EB011203F0070321681344E6
:1019C4008B60D4E7001001401F85EB5158B310B56C
:1019D400044690F83D300BB3242384F83D3022684C
:1019E400D36823F40053D3602046FFF767FF2268CF
:1019F400136923F4904313612268536923F02A0383
:101A040053612268D36843F40053D36000202064F8
:101A1400202384F83D3084F83E3010BD80F83C30FB
:101A2400FEF738FED8E7012070470000DFF834D015
:101A34000D480E490E4A002302E0D458C450043322
:101A4400C4188C42F9D30B4A0B4C002301E01360F9
:101A54000432A242FBD3FEF771FE00F019F8FEF740
:101A640055FD704700000220000000200C000020FB
:101A7400D81D00080C00002090010020FEE702445D
:101A84000346934200D1704703F8011BF9E70000B5
:101A940070B50D4D0D4C641BA4100026A64209D14F
:101AA4000B4D0C4C00F076F9641BA4100026A642E2
:101AB40005D170BD55F8043B98470136EEE755F85B
:101AC400043B98470136F2E7D01D0008D01D0008FA
:101AD400D01D0008D41D00082DE9F047089D0C46D0
:101AE400002B4ED194468C458646B2FA82F262D9D6
:101AF4004AB1C2F12003914020FA03F30CFA02FC2C
:101B0400194300FA02FE4FEA1C471FFA8CF6B1FB98
:101B1400F7F44FEA1E4307FB141143EA014304FBA5
:101B240006F199420AD91CEB030304F1FF3080F05B
:101B34001281994240F20F81023C6344591A1FFA00
:101B44008EF3B1FBF7F007FB101143EA014300FBEE
:101B540006F69E420AD91CEB030300F1FF3180F024
:101B6400FC809E4240F2F980634402389B1B40EAA9
:101B7400044000211DB1D3400022C5E90032BDE874
:101B8400F0878B4205D90DB1C5E900010021084653
:101B9400F5E7B3FA83F1002946D1A34202D3904278
:101BA400C0F0F080861A64EB03030120002DE6D018
:101BB400C5E90063E3E7002A40F09080A1EB0C0440
:101BC4004FEA1C481FFA8CF70121B4FBF8F64FEAE0
:101BD4001E4308FB164443EA044307FB06F09842FD
:101BE40008D91CEB030306F1FF3402D2984200F239
:101BF400CD8026461C1A1FFA8EF3B4FBF8F008FBBE
:101C0400104443EA044300FB07F79F4208D91CEB46
:101C1400030300F1FF3402D29F4200F2B080204659
:101C2400DB1B40EA0640A5E7C1F120068B4022FAFF
:101C340006F71F4320FA06FC04FA01F343EA0C03F7
:101C4400F44000FA01F8380C4FEA1349B4FBF0FEF3
:101C54001FFA87FC00FB1E4449EA04440EFB0CF9FE
:101C6400A14502FA01F20AD93C190EF1FF3A80F0BB
:101C74008480A14540F28180AEF1020E3C44A4EB85
:101C840009041FFA83F9B4FBF0F300FB134449EA97
:101C9400044403FB0CFCA44507D93C1903F1FF30B1
:101CA40067D2A44565D9023B3C4443EA0E40A0FBFD
:101CB4000293A4EB0C049C42CE469C4651D34ED0D6
:101CC40055B1B8EB0E0364EB0C0404FA06F6CB40F2
:101CD4001E43CC40C5E90064002150E7C2F1200353
:101CE40020FA03F10CFA02FC24FA03F394400C43A7
:101CF4004FEA1C4800FA02FE1FFA8CF7B3FBF8F017
:101D040008FB1031230C43EA014300FB07F199421D
:101D140008D91CEB030300F1FF362CD299422AD9CF
:101D2400023863445B1AA4B2B3FBF8F108FB113325
:101D340044EA034401FB07F3A34208D91CEB04045F
:101D440001F1FF3613D2A34211D902396444E41AD3
:101D540041EA004139E70446F0E6084606E7C8458B
:101D6400AED2B9EB020E63EB070C0138A8E731469B
:101D7400EDE7034699E73046D4E7D6467FE7634468
:101D840002384DE70646234608460FE7023E634401
:101D940030E700BFF8B500BFF8BC08BC9E467047EA
:0C1DA400F8B500BFF8BC08BC9E467047B4
:101DB0000000000001020304000000000000000019
:081DC0000102030406070809F3
:081DC80014FDFF7F0100000083
:041DD0001D020008E8
:041DD400F901000809
:0C1DD8000024F4000100000010000000D6
:0400000508001A31A4
:00000001FF
